:020000040800F2
:1000000000070020D501000821120008A70B0008F6
:100010001D1200081D0A0008FB1B0008000000005C
:10002000000000000000000000000000E5130008D0
:10003000210A00080000000095120008F9140008C9
:10004000EF010008EF010008EF010008EF010008D0
:10005000EF010008EF010008EF010008EF010008C0
:10006000EF010008EF010008EF010008EF010008B0
:10007000EF010008EF010008EF010008EF010008A0
:10008000EF010008EF010008EF010008EF01000890
:10009000EF010008EF010008EF010008EF01000880
:1000A000EF010008EF010008EF010008EF01000870
:1000B000EF010008EF010008EF010008EF01000860
:1000C000EF010008EF010008EF010008EF01000850
:1000D000EF0100082D1A0008EF010008EF010008E9
:1000E000EF010008EF010008EF010008EF01000830
:1000F000EF010008EF010008EF010008EF01000820
:10010000EF010008EF010008EF010008EF0100080F
:10011000EF010008EF010008EF010008EF010008FF
:10012000EF010008EF010008EF010008EF010008EF
:1001300000F002F800F03FF80AA090E8000C8244BA
:100140008344AAF10107DA4501D100F034F8AFF297
:10015000090EBAE80F0013F0010F18BFFB1A43F0A5
:1001600001031847D4740000F4740000103A24BF4F
:1001700078C878C1FAD8520724BF30C830C144BF0C
:1001800004680C607047000000230024002500264E
:10019000103A28BF78C1FBD8520728BF30C148BFEA
:1001A0000B607047642900F06780002070471FB51E
:1001B0001FBD10B510BD00F0CBFA1146FFF7F7FFD9
:1001C00003F04AFB00F0E9FA03B4FFF7F2FF03BCC7
:1001D00001F099FD0948804709480047FEE7FEE71E
:1001E000FEE7FEE7FEE7FEE7FEE7FEE7FEE7FEE7E7
:1001F00004480549054A064B70470000FD140008F5
:100200003101000800010020000700200003002049
:1002100000030020704710B54C1084EA530404D545
:100220004042C1F1000138BF491E1B4204D5524271
:10023000C3F1000338BF5B1E00F02EF914F0804FAD
:1002400004D04042C1F1000138BF491E14F0004FF4
:1002500004D05242C3F1000338BF5B1E10BD000042
:100260000FB4044910B503AA029800F0F1F910BCCC
:100270005DF814FB380000202DE9F041064600240B
:1002800010687529314616A510D0AFF300800028FC
:1002900002DA404213A507E031688A0701D512A5AA
:1002A00002E0490704D511A5012401E0AFF3008065
:1002B00000210A2206F1240709E0B0FBF2FCB0FBA2
:1002C000F2F302FB1C00303078541846491C002819
:1002D000F3D123462A463046BDE8F04100F05EB92E
:1002E000000000002D0000002B0000002000000096
:1002F0002DE9F05F894604464FF0000ADFF824B18B
:10030000FB44C0F820A02046E168884700287DD043
:10031000252806D0D4E901219047206A401C20629C
:10032000F1E700255F462046E16888472028064619
:1003300007DB312E05D2B81910F8200C08B105439F
:10034000F1E7A80701D525F00405C4F81CA0002793
:10035000C4F818A02A2E09D0304601F0CDFC38B3DD
:1003600004EB8708303EC8F8186019E059F8041B00
:10037000204604EB87029161E1688847012F064619
:1003800018D1E069002820DA25F020051DE0D8F812
:10039000180000EB800006EB40003038C8F8180069
:1003A0002046E1688847064601F0A6FC0028EED109
:1003B000012F0AD02E2E08D12046E16888477F1CE5
:1003C0000646022F45F02005C4DBA069002803DAA9
:1003D000404245F00105A061E80701D025F0100575
:1003E000A6B1A6F14100192802D8203645F40065CF
:1003F0004A463146204625604D46FFF7D3FE60B1A0
:10040000012807D0ED1D25F0070000E007E000F10E
:10041000080978E705F1040975E730467AE7206AAC
:10042000BDE8F09FE271000040EA010310B59B07B0
:100430000FD1042A0DD310C808C9121F9C42F8D04E
:1004400020BA19BA884201D9012010BD4FF0FF30FF
:1004500010BD1AB1D30703D0521C07E0002010BD15
:1004600010F8013B11F8014B1B1B07D110F8013BA1
:1004700011F8014B1B1B01D1921EF1D1184610BD82
:1004800002F0FF0343EA032242EA024200F0F4B81A
:10049000704770477047704753EA020C00F069805C
:1004A0002DE9F04B4FF00006002B1FBFB3FA83F588
:1004B00003FA05F424FA05F65E4012BF1643B2FAB9
:1004C00082F502FA05F4C5F120051EBF22FA05FCEB
:1004D00044EA0C04203556EA044C4FEA144418BF91
:1004E000641C4FF000084FF00009904271EB030CC0
:1004F00039D3002919BFB1FA81F701FA07F6B0FA2A
:1005000080F700FA07F6C7F120071EBF20FA07FCA4
:1005100046EA0C062037B6FBF4FCA7EB0507103FB4
:1005200007F01F0BCBF120060CFA0BFB2CFA06F69A
:1005300044BFB3460026202FA4BF5E464FF0000BF9
:100540005BEA060C08BF4FF0010B19EB0B09ABFB84
:10055000027C48EB0608C01B06FB02CC0BFB03CC5D
:1005600071EB0C01C1E70B46024641464846BDE827
:10057000F08B13B54FF000004FF00001AFF3008097
:10058000BDE81C40704710B500F096F8006810BD3B
:1005900010B5044600F090F8046010BD2DE9F04756
:1005A0000D4699469246044600F1240801688806E3
:1005B00004D5E06921F01001216000E00120A8428B
:1005C00001DD471B00E00027A1697A1902EB090051
:1005D000081AA0612078C00602D42046AFF300803C
:1005E000002608E0D4E901211AF806009047206AA5
:1005F000401C761C20624E45F4DB2078C0060AD5EC
:100600002046AFF3008006E0D4E901213020904776
:10061000206A401C2062381EA7F10107F4DC07E0C5
:10062000D4E9012118F805009047206A401C206297
:10063000281EA5F10105F3DC2046AFF300802078E9
:10064000000602D50220BDE8F0870120FBE700008C
:10065000074B70B50D467B4400F037F8044628463A
:1006600000F046F810B14FF0FF3070BD204670BD6D
:10067000372B00004FF000020429C0F0128010F068
:10068000030C00F03B80CCF1040CBCF1020F18BF4E
:1006900000F8012BA8BF20F8022BA1EB0C0100F001
:1006A0002DB85FEAC17C24BF00F8012B00F8012BB4
:1006B00048BF00F8012B7047004870479C0000209D
:1006C00001694A1C02610878704700B58FB0CDE916
:1006D00001310021059105497944CDE90310114606
:1006E0006846FFF705FE0FB000BD0000E5FFFFFF05
:1006F000007B00F0800070474FF0000200B5134609
:1007000094469646203922BFA0E80C50A0E80C5031
:10071000B1F12001BFF4F7AF090728BFA0E80C50E2
:1007200048BF0CC05DF804EB890028BF40F8042BDB
:1007300008BF704748BF20F8022B11F0804F18BF48
:1007400000F8012B70470000004870479C00002013
:100750007546FFF7F9FFAE4605006946534620F09F
:100760000700854618B020B5FFF742FDBDE82040E0
:100770004FF000064FF000074FF000084FF0000B5D
:1007800021F00701AC46ACE8C009ACE8C009ACE810
:10079000C009ACE8C0098D4670470446AFF300803D
:1007A0002046FFF711FD21B1826842F0010282600C
:1007B00003E0826822F001028260704710B50446AF
:1007C0001248844208D10121401500F091FD00211A
:1007D000601500F08DFD17E00D48844208D101211D
:1007E000001500F085FD0021201500F081FD0BE0D3
:1007F0000848844208D10121C80300F079FD002196
:100800004FF4004000F074FD10BD000000240140D2
:1008100000280140003C0140014600208A6802F0A7
:1008200004020AB1012000E0002070470146C86CB4
:1008300080B270470246002013680B400BB10120C4
:1008400000E000207047014600208A6802F008029C
:100850000AB1012000E000207047000030B50246D8
:100860000020002350680F4C20400D790C6844EAAA
:1008700005242043506090680B4C2040D1E902547D
:100880002C434D7944EA450420439060D06A20F41B
:1008900070000C7C641EE4B2234340EA0350D06233
:1008A00030BD0000FFFEF0FFFDF7F1FFF0B504469C
:1008B0000D4600200021092D11DDE068A5F10A0692
:1008C00006EB4607072606FA07F18843A5F10A0654
:1008D00006EB460603FA06F10843E0600CE02069E7
:1008E00005EB4507072606FA07F1884305EB4506A1
:1008F00003FA06F108432061072A0FDA606B561EDF
:1009000006EB86071F2606FA07F18843561E06EBFC
:10091000860605FA06F10843606322E00D2A0FDA25
:10092000206BD61F06EB86071F2606FA07F18843C1
:10093000D61F06EB860605FA06F10843206310E091
:10094000E06AA2F10D0606EB86071F2606FA07F1FC
:100950008843A2F10D0606EB860605FA06F1084368
:10096000E062F0BD816841F008018160704721B10B
:10097000826842F4A002826003E0826822F4A0024E
:1009800082607047816841F0040181607047000017
:1009900000B587B001214FF4017000F099FC4FF4CD
:1009A000004000F079FC0220ADF8040000208DF832
:1009B000070001A9174800F034F81748FFF7FEFEBA
:1009C000002002908DF80C008DF80D004FF460208F
:1009D00004900020059001208DF8180002A90E480F
:1009E000FFF73CFF01210C48FFF7DDFE0A48FFF747
:1009F000B9FF00BF0848FFF726FF0028FAD10648D4
:100A0000FFF7C0FF00BF0448FFF706FF0028FAD138
:100A100007B000BD000801400024014000BFFEE710
:100A200070472DE9F04102460025002600200023F2
:100A30000024002791F803C00CF00F0591F803C0C3
:100A40000CF0100CBCF1000F03D091F802C04CEA7E
:100A5000050591F800C0BCF1000F31D014680020EA
:100A60002BE04FF0010C0CFA00F3B1F800C00CEAD7
:100A700003069E4220D183004FF00F0C0CFA03F7BF
:100A8000BC4305FA03FC4CEA040491F803C0BCF132
:100A9000280F06D14FF0010C0CFA00FCC2F814C06C
:100AA0000AE091F803C0BCF1480F05D14FF0010CEA
:100AB0000CFA00FCC2F810C0401C0828D1D3146006
:100AC000B1F800C0BCF1FF0F34DD546800202EE007
:100AD00000F1080C4FF0010808FA0CF3B1F800C05F
:100AE0000CEA03069E4221D183004FF00F0C0CFA52
:100AF00003F7BC4305FA03FC4CEA040491F803C075
:100B0000BCF1280F05D100F1080C08FA0CF8C2F866
:100B1000148091F803C0BCF1480F07D100F1080C14
:100B20004FF0010808FA0CF8C2F81080401C0828A1
:100B3000CED35460BDE8F0810146886880B270472A
:100B40000161704710B50446072301222146094878
:100B5000FFF7ACFE01210748FFF709FF00BF0221A4
:100B60000448FFF767FE0028F9D00248FFF75EFE51
:100B700010BD0000002401402DE9F04107460C465D
:100B80000025002608E03846FFF7DCFF0544052075
:100B900001F0B8FC701CC6B2A642F4DBB5FBF4F061
:100BA00080B2BDE8F08100BFFEE7000010B5002074
:100BB0000F4908600F48006820F070400D49086038
:100BC0000846006840F04050086000200A49C1F81B
:100BD0009C01022001F0BCFC0120054908600220B4
:100BE00001F0B6FC00200449C1F8980110BD0000D6
:100BF00098812142000C01400080214208B501216A
:100C0000102000F065FBC020ADF8000010208DF82A
:100C1000030003208DF8020069460548FFF701FF35
:100C20000120044908600449C1F89C0108BD000086
:100C3000000C0140988121420080214210B5002023
:100C40000F4908600F48006820F070400D490860A7
:100C50000846006840F04050086001200A49C1F889
:100C60009C01022001F074FC01200549086002206B
:100C700001F06EFC00200449C1F8980110BD00008D
:100C800098812142000C01400080214270B5054648
:100C900000241748006820F0704015490860084695
:100CA000006840F000400860002616E0002011496E
:100CB0000860022001F04CFC01200F49C1F89801A6
:100CC0006006040E0B487C38006808B1601CC4B292
:100CD000012001F03DFC701CC6B2082EE6DB15B900
:100CE000FFF7ACFF01E0FFF761FF204670BD000099
:100CF000000C0140988121420080214270B50446D9
:100D00001548006820F070401349086008460068E4
:100D100040F040500860002010490860002517E0AE
:100D2000E0090E49091D08606006040E022001F06A
:100D30000FFC01200A49C1F89801022001F008FCCB
:100D4000002006490860022001F002FC681CC5B2C0
:100D5000082DE5DB70BD0000000C014098812142A8
:100D60000080214210B50F48006820F070400D4906
:100D700008600846006840F04050086001200A49B9
:100D800008600A49C1F89801042001F0E1FB002045
:100D900005490860042001F0DBFB00200349C1F88D
:100DA000980110BD000C01409C812142008021422D
:100DB00010B50F48006820F070400D4908600846E3
:100DC000006840F04050086000200A4908600A4965
:100DD000C1F89C01042001F0BBFB0120054908601B
:100DE0000549C1F89C01042001F0B2FB10BD0000D0
:100DF000000C0140988121420080214210B500245E
:100E00001448006820F070401249086008460068E5
:100E100040F00040086001200F49086001F098FB95
:100E200001200E49C1F8980101F092FB07E0601C17
:100E3000C4B2FA2C03DDFFF7BBFF012010BD06484A
:100E4000803800680028F2D10349091F086000BFFC
:100E5000F4E70000000C01409C8121420080214207
:100E600008B50121042000F033FA0121082000F028
:100E70002FFA0121102000F02BFA28208DF8030012
:100E800003208DF802001020ADF8000069463448B8
:100E9000FFF7C7FD2020ADF8000069463048FFF796
:100EA000C0FD4020ADF8000069462D48FFF7B9FDB0
:100EB0008020ADF8000069462948FFF7B2FD4820C0
:100EC0008DF8030003208DF802004FF48050ADF838
:100ED000000069462248FFF7A4FD0820ADF8000095
:100EE00069462048FFF79DFD4FF40040ADF8000033
:100EF00069461B48FFF795FD28208DF80300032065
:100F00008DF802004FF48060ADF800006946164885
:100F1000FFF787FD4FF40060ADF800006946124806
:100F2000FFF77FFD4FF48050ADF8000069460E4892
:100F3000FFF777FD0420ADF8000069460948FFF788
:100F400070FD1020ADF8000069460648FFF769FD06
:100F50002020ADF8000069460248FFF762FD08BD99
:100F60000008014000100140000C014008B50121BB
:100F7000242000F0ADF94FF48070ADF8000010208F
:100F80008DF8030003208DF8020069460948FFF739
:100F900048FD4FF480710748FFF7D2FD0420ADF8FB
:100FA000000069460448FFF73CFD04210248FFF7B2
:100FB000C7FD08BD000801400014014010B5FFF74F
:100FC0001DFE80216B2000F0D7F8642001F09AFA12
:100FD00000216B2000F0D0F8032000F08BF80020F7
:100FE00000F080F8322000F0AAF80021382000F04C
:100FF000C3F800216A2000F0BFF80021232000F090
:10100000BBF88021372000F0B7F8752000F013F806
:101010000446682C0BD101216B2000F0ADF80021B3
:101020006C2000F0A9F8322000F089F801E00120DE
:1010300010BD0020FCE770B50446FFF793FED020FA
:10104000FFF75CFEFFF7DAFE2046FFF757FEFFF7DB
:10105000D5FEFFF787FED120FFF750FEFFF7CEFE4B
:101060000020FFF713FE0546FFF7A2FE284670BDDD
:101070002DE9F04106460F4614461D46FFF772FE65
:10108000002141EA4601C8B2FFF738FEFFF7B6FE7D
:1010900020B1FFF78DFE0120BDE8F0813846FFF753
:1010A0002DFEFFF7ABFEFFF75DFE012101EB4601D0
:1010B000C8B2FFF723FEFFF7A1FE0DE0012C04D11B
:1010C0000020FFF7E3FD287003E00120FFF7DEFDBD
:1010D0002870601EC4B26D1C002CEFD1FFF768FEB3
:1010E0000020D9E710B50446E006010E1C2000F0F0
:1010F00043F810BD10B50446E006010E1B2000F0B9
:101100003BF810BD70B504460025BC2C01DB012561
:1011100010E0622C01DB02250CE02A2C01DB032508
:1011200008E0142C01DB042504E00A2C01DB052572
:1011300000E0062529461A2000F01EF870BD70B5A3
:101140000446B4F57A7F01DD4FF47A74042C00DA9A
:1011500004244FF47A7090FBF4F0401EC5B2294687
:10116000192000F009F80546264604EBD671C1F3B4
:101170004F00FFF7C7FF70BD70B505460C46FFF77F
:10118000F1FDD020FFF7BAFDFFF738FE18B1FFF7E9
:101190000FFE012070BD2846FFF7B0FDFFF72EFEC1
:1011A0002046FFF7ABFDFFF729FE18B1FFF700FE61
:1011B0000120EFE7FFF7FCFD0020EBE72DE9F04110
:1011C00005460E4617469846FFF7CCFD002141EA3A
:1011D0004501C8B2FFF792FDFFF710FE20B1FFF7FF
:1011E000E7FD0120BDE8F0813046FFF787FDFFF7FE
:1011F00005FE00240CE018F80400FFF77FFDFFF760
:10120000FDFD18B1FFF7D4FD0120EBE7601CC4B26F
:10121000BC42F0DBFFF7CCFD0020E3E700BFFEE7B8
:101220007047000070B5002100230F22C47804B37A
:10123000154C246804F4E064C4F5E064210AC1F1AB
:101240000403CA40447804FA03F18478144021432B
:1012500009010E4C0678A155047804F01F050124FD
:10126000AC4005786D11AD0005F1E025C5F80041F1
:1012700009E0047804F01F050124AC40044D067811
:10128000761145F8264070BD0CED00E000E400E06A
:1012900080E100E07047000001460020034A5068EA
:1012A00020F44040084350607047000000100240A6
:1012B00029B1064AD2690243044BDA6104E0034AC9
:1012C000D2698243014BDA6170470000001002408E
:1012D00029B1064A92690243044B9A6104E0034A29
:1012E00092698243014B9A617047000000100240EE
:1012F00029B1064AD2680243044BDA6004E0034A8B
:10130000D2688243014BDA6070470000001002404F
:1013100030B500210022002400232D4D6D6805F01A
:101320000C0121B1042905D0082923D105E0294D5C
:10133000056022E0274D05601FE0254D6D6805F42E
:101340007012234D6D6805F48034022505EB92423E
:101350001CB9214D554305600BE01D4D6D6805F42A
:1013600000351DB11C4D5543056002E0194D554334
:10137000056002E0174D056000BF00BF144D6D68A9
:1013800005F0F0010909154D6B5C0568DD4045600D
:101390000F4D6D6805F4E061090A104D6B5C4568FE
:1013A000DD4085600A4D6D6805F46051C90A0B4D3A
:1013B0006B5C4568DD40C560054D6D6805F44041D6
:1013C000890B074D6B5CC568B5FBF3F5056130BD56
:1013D0000010024000127A0000093D003F0000208A
:1013E0004F000020704710B500F002F810BD00005B
:1013F0000CB50020019000903348006840F4803024
:101400003149086000BF3048006800F400300090A7
:101410000198401C0190009818B90198B0F5A06F90
:10142000F1D12948006800F4003010B1012000908B
:1014300001E0002000900098012843D12348006873
:1014400040F01000214908600846006820F00300C1
:1014500008600846006840F0020008601A484068CA
:10146000194948600846406848600846406840F4AA
:10147000806048600846406820F47C104860084658
:10148000406840F4E81048600846006840F080700A
:10149000086000BF0C48006800F000700028F9D018
:1014A0000948406820F00300074948600846406842
:1014B00040F00200486000BF0348406800F00C00A4
:1014C0000828F9D10CBD00000010024000200240A5
:1014D000042808D14FF0E021096941F004014FF0E0
:1014E000E022116107E04FF0E021096921F00401D9
:1014F0004FF0E022116170477047000010B51348AB
:10150000006840F001001149086008464068104931
:1015100008400E494860084600680E4908400B49DB
:1015200008600846006820F480200860084640688B
:1015300020F4FE0048604FF41F008860FFF753FF5F
:101540004FF000600449086010BD00000010024028
:101550000000FFF8FFFFF6FE08ED00E030B589B0AF
:1015600005460C4601210420FFF7B2FE01210820A8
:10157000FFF7AEFE0121C802FFF7AAFE18208DF882
:10158000230003208DF822004FF48070ADF8200076
:1015900008A92348FFF745FA10208DF823000320FF
:1015A0008DF822000420ADF8200008A91D48FFF79F
:1015B00038FA0820ADF8200008A91A48FFF731FAD8
:1015C000ADF81850ADF814400020ADF81A00ADF891
:1015D000160005A9144800F0D7F97020ADF80400F2
:1015E0000120ADF806000020ADF80A000220ADF899
:1015F0000C0001A90C4800F0C5F808210A4800F0C9
:101600000DF90121084800F0ADF80121064800F06D
:1016100091F80121044800F099F809B030BD0000AC
:1016200000080140000C0140002C014030B589B099
:1016300005460C4601210820FFF74AFE0121102033
:10164000FFF746FE01210420FFF732FE18208DF837
:10165000230003208DF822004FF48070ADF82000A5
:1016600008A93148FFF7DDF94FF40070ADF820000C
:1016700008A92D48FFF7D5F910208DF82300032085
:101680008DF822004FF40070ADF8200008A927481B
:10169000FFF7C7F94FF48070ADF8200008A9234880
:1016A000FFF7BFF90220ADF8200008A91E48FFF798
:1016B000B8F90120ADF8200008A91B48FFF7B1F9DF
:1016C000ADF81850ADF814400020ADF81A00ADF890
:1016D000160005A9164800F057F97020ADF804006F
:1016E0000120ADF806000020ADF80A000220ADF898
:1016F0000C0001A90E4800F09BF801A90C4800F06D
:10170000F1F808210A4800F0E3F80821084800F041
:1017100027F90121064800F00DF80121044800F0E6
:1017200015F809B030BD0000000C01400010014068
:101730000008004021B1028842F08002028004E0EB
:1017400002884FF67F731A400280704721B10288E9
:1017500042F00102028004E002884FF6FE731A4054
:101760000280704731B1B0F8442042F40042A0F842
:10177000442005E0B0F84420C2F30E02A0F8442053
:101780007047000070B5002400220023058C4FF63E
:10179000FE7635400584028C8388048B4FF68F7566
:1017A0002C40B51E2C400D882C43751E2A400D89F7
:1017B0002A434D882A43144DA8420BD0134DA8420A
:1017C00008D0134DA84205D0124DA84202D0124DA8
:1017D000A84213D14FF6F7752A404D892A434FF698
:1017E000FB752A408D882A434FF6FF652B404FF644
:1017F000FF552B408D892B43CD892B438380048358
:10180000CD888586028470BD002C014000340140E3
:101810000040014000440140004801400A460021C8
:10182000018B4FF6F7731940114301837047000095
:1018300070B5002400220023058C4FF6FF6635406A
:101840000584028C8388848B4FF68F752C404FF66D
:10185000FC752C400D882C434FF6FF552A400D890E
:101860004FF6FF7606EA05252A434D8806EA052548
:101870002A43154DA84202D0144DA8421DD14FF263
:10188000FF752A404D894FF6FF7606EA05252A4363
:101890004FF6FF352A408D8806EA05252A434EF685
:1018A000FF752B404DF6FF752B408D8906EA051517
:1018B0002B43CD8906EA05152B4383808483CD888D
:1018C0008587028470BD0000002C01400034014077
:1018D0000A460021818B4FF6F7731940114381832B
:1018E0007047000070B5002200230024058C4EF6DE
:1018F000FF7635400584038C8488828B48F6FF751B
:101900002A404FF6FF452A400D884FF6FF7606EA3B
:1019100005252A434DF6FF752B400D8906EA05354E
:101920002B434D8806EA05352B430B4DA84202D0C8
:101930000A4DA84208D14BF6FF752C408D894FF611
:10194000FF7606EA85152C4384808283CD88A0F833
:101950004050038470BD0000002C01400034014061
:101960000A460021818B4FF2FF7319404FF6FF7337
:1019700003EA022319438183704781867047818778
:101980007047A0F840107047002202881D4B984213
:101990000ED01D4B98420BD0B0F1804F08D01B4B9E
:1019A000984205D01A4B984202D01A4B984204D163
:1019B0004FF68F731A404B881A43174B984207D043
:1019C000164B984204D04FF6FF431A40CB881A4377
:1019D00002808B8883850B8803850A4B98420BD045
:1019E000094B984208D00E4B984205D00D4B9842B7
:1019F00002D00D4B984201D10B7A038601238382DA
:101A000070470000002C01400034014000040040F9
:101A100000080040000C004000100040001400408E
:101A200000400140004401400048014010B540F230
:101A30002551064800F01CF838B1044800F0D4F8ED
:101A40000349087001200349088010BD0038014097
:101A50003E0000203C00002021B1828942F4005267
:101A6000828104E082894DF6FF731A4082817047BB
:101A700070B50246002400230025002040F66A16B7
:101A8000B14200D100BFC1F3421501F01F0301268E
:101A900006FA03F3012D02D19689334006E0022DA8
:101AA00002D1168A334001E0968A33400C12012697
:101AB00006FA04F41688344013B10CB1012000E09A
:101AC000002070BDF0B5034600240026002500204C
:101AD00040F66A17B94200D100BF1846C1F342145C
:101AE00001F01F06012707FA06F5012C01D10C3081
:101AF00004E0022C01D1103000E014301AB1076864
:101B00002F43076002E00768AF430760F0BD0000A5
:101B10002DE9F04786B005460E460024A24600BFD8
:101B2000A1460027B08900B100BF2F462C8A4CF691
:101B3000FF700440F08804432C82AC894EF6F31009
:101B40000440B08831890843718908430443AC815B
:101B5000AC8A4FF6FF400440B0890443AC8201A830
:101B6000FFF7D6FB1F48874202D1DDF810A001E045
:101B7000DDF80CA0A88900F4004040B10AEBCA00CF
:101B800000EB0A1031684900B0FBF1F807E00AEBFE
:101B9000CA0000EB0A1031688900B0FBF1F864203C
:101BA000B8FBF0F004012009642101FB1089A88929
:101BB00000F4004040B1322000EBC900B0FBF1F06E
:101BC00000F00700044308E0322000EB0910642114
:101BD000B0FBF1F000F00F0004432C8106B0BDE82B
:101BE000F08700000038014001468888C0F30800F3
:101BF0007047C1F308028280704700BFFEE74900CA
:101C000050EAC12018BF04204A0D18BF40F001005F
:101C100040F2FF72B2EB515F08BF40F002000128B2
:101C200008BF052070472DE9F0414F1E00EBC701AA
:101C30000446D1E9000115461E4637F006020DD0D4
:101C40002A46334603F03AFF7F1E04EBC703D3E96D
:101C5000002303F02BFD37F00602F1D1022F25D02F
:101C6000042F13D0062F18BFBDE8F0812A46334653
:101C700003F024FFD4E90A2303F018FD2A46334673
:101C800003F01CFFD4E9082303F010FD2A46334675
:101C900003F014FFD4E9062303F008FD2A46334677
:101CA00003F00CFFD4E9042303F000FD2A46334679
:101CB00003F004FFD4E9022303F0F8FC2A4633467C
:101CC00003F0FCFED4E90023BDE8F04103F0EEBCD4
:101CD000012204F09EBD03F0E9BC00221346104629
:101CE000114603F093BD0000024A0020110704F0E2
:101CF00090BD000001FDFFFF30380A2801D201200D
:101D0000704700207047014600BF70472DE9FE4F25
:101D100006460F460025684601F048FA002442E0D6
:101D200056F8240057F82410A0EB010ABAF1000F6E
:101D300001DB514601E0CAF10001084604F064FBF2
:101D400083464FF08F4104F02DFA80465DF8240061
:101D5000002104F0E9FA16D05DF82410404604F0A2
:101D600021FA82464FF07E5104F0ACFC814629F006
:101D7000004A0F48416A504604F072FC12D201201A
:101D8000A04005430EE00A48C169404604F068FBE4
:101D900005D30748016A404604F062FC02D20120E4
:101DA000A0400543641C032CBADB2846BDE8FE8F27
:101DB000C86800082DE9F04D8D4F21F0004A86B02B
:101DC00005460C46BA452ADBAAEB070028430AD091
:101DD0008848824501DC1AD1CDB106B02846BDE85D
:101DE000F04DFFF775BF844A844B284603F066FE2A
:101DF00007460E46824A834B2846214603F05EFE84
:101E000006B03A463346BDE8F04D03F04FBC012022
:101E1000FEF7BEFB06B0BDE8F04DFFF75EBF7A48A7
:101E2000824542DABAF1795F0BDA2846FFF7E7FE1E
:101E3000042808BFFFF758FF284606B02146BDE832
:101E4000F08D2A460B46104603F038FE83460246C4
:101E50006E480E460B4606217844FFF7E4FE5A46CC
:101E6000334603F02BFE804669488A465A4633467D
:101E700004217844FFF7D7FE5A46334603F01EFE8E
:101E800000223B4603F012FC02460B4640465146F8
:101E900003F0BCFC2A46234603F010FE06B02A4697
:101EA0002346BDE8F04D03F001BC284624F0004174
:101EB00000223D463B4603F0FFFE4FF0FF3204F0A8
:101EC000A8FC0646024653480F460B4606217844B6
:101ED000FFF7A9FE32463B4603F0F0FDCDE90001D5
:101EE0004D4832463B4604217844FFF79CFE32467B
:101EF0003B4603F0E3FD00222B4603F0D7FB83466D
:101F000002913046394603F0ABFA804643480D460D
:101F1000504517DCDDE900015A46029B03F076FCD0
:101F200042462B4603F0CAFD42462B4603F0BEFB59
:101F3000012204F06EFC304A304B03F0AFFF304A10
:101F4000304B4CE04FF0000A52460B46404603F03F
:101F5000ADFBCDE9031052462B461046194603F05F
:101F6000ADFD32463B4603F0A7FEDDE9033203F048
:101F70004DFC06460F46DDE900015A46029B03F080
:101F800045FC8346009101223046394604F041FC6D
:101F9000194A1A4B03F090FE06460F4601224046AE
:101FA000294604F036FC5A46009B03F087FD324672
:101FB0003B4603F073FF06460F4601225046294672
:101FC00004F027FC0E4DDFF858802A46434603F004
:101FD00073FE32463B4603F06FFE2A46434603F04B
:101FE0006BFE002CD8BF81F0004106B0BDE8F08D3B
:101FF0000000F03F0000F07F075C143326A6913C00
:10200000182D4454FB21F93F0000E03F9C5600008E
:10201000B2560000265600003C5600003333EF3F16
:10202000FB21E93F2DE9F84F04460D4621F0004021
:1020300000917349814211DC7249884201DC06D16A
:102040002CB120462946BDE8F84FFFF741BE6E4847
:10205000002DCCBF6D496E49BDE8F88F6D498142B6
:1020600011DD6D498142D8BF4FF0FF366DDD20464E
:102070002946FFF7C4FD042808BFFFF735FE2046B8
:102080002946BDE8F88F6549654F25F00045814236
:1020900033DD6449814219DD002632464FF080432A
:1020A0002046294603F002FB80468A46012220464C
:1020B000294604F0AEFB00223B4603F0EFFE424609
:1020C000534603F0A3FB04460D463EE001260022E2
:1020D000BA463B462046294603F0E8FA80460F46BA
:1020E000002253462046294603F0D8FE42463B468E
:1020F00003F08CFB04460D4627E04B4981421BDD73
:10210000DFF828A10226002253462046294603F084
:10211000D5FC00223B4603F0C9FA80460F46002258
:1021200053462046294603F0B9FE42463B4603F09B
:102130006DFB04460D4608E0032622462B46002090
:102140003B4903F063FB04460D4622462B461046EE
:10215000194603F0B3FC8B46824602460B4603F059
:10216000ADFC07460246334888460B4606217844B4
:10217000FFF759FD52465B4603F0A0FC82462E480D
:102180008B463A46434605217844FFF74CFD3A46D4
:10219000434603F093FC02460B46002E5046594638
:1021A0000CDA03F083FA22462B4603F087FC01B0D9
:1021B00022462B46BDE8F04F03F07EBD03F076FAD1
:1021C00022462B4603F07AFC1C4A7A4402EBC603F3
:1021D000D3E9002303F062FE22462B4603F05EFEA5
:1021E000174A7A4402EBC603D3E9002303F064FDE7
:1021F000009A002AB8BF81F00041BDE8F88F0000C6
:10220000000010440000F07F182D4454FB21F93FDA
:10221000FB21F9BF0000DC3F0000203E0000F33F3F
:102220000000F03F0000E63F008003400000F83F60
:102230000000F0BF3E540000FC5300009A53000021
:10224000625300002DE9F04D9446CCF1000423F0D8
:1022500000464CEA0404524F46EAD4749A46884633
:1022600021F00042BC4206D8454240EA050442EA59
:10227000D474BC4204D9BDE8F04D6246FFF72BBDD3
:10228000AAF14055A5F17F6555EA0C040BD0022454
:1022900004EAAA74434DDFF810E144EAD87452EA24
:1022A000000B04D00CE0BDE8F04DFFF7BBBE002CE6
:1022B00014BF012CBDE8F08D022C30D0032C32D09D
:1022C00056EA0C0B0AD0BE4220D1BA4209D126F000
:1022D000804622F080423346114617E000291ADB7F
:1022E00025E0DFF8C8B0FB44002C04BFDBE90001A7
:1022F000BDE8F08D012C02BFDBE9000181F0004157
:10230000BDE8F08D022C0AD0032C0CD0BA4212D1B9
:10231000B8F1000F0BDA23482549BDE8F08D2846B7
:102320002449BDE8F08D28467146BDE8F08D1D4872
:102330002149BDE8F08D921B12153C2AC4BF1948F3
:102340001D490EDCBAF1000FBEBF12F13C0F002098
:10235000014606DB624603F059FA21F00041FFF71F
:1023600061FE002C08BFBDE8F08D012C04BF81F098
:102370000041BDE8F08D114A114B022C07D003F04B
:102380008DFD2A46BDE8F04D0A4B03F087BD03F0F2
:1023900085FD2A46BDE8F04D064B03F08DBC0000DC
:1023A0000000F07F182D4454FB2109C0F6520000B4
:1023B000FB21F9BFFB210940FB21F93F075C1433E6
:1023C00026A6A13C10B50F494FF4167001F02CFE63
:1023D00000200D49086007E0012000F093F80A484A
:1023E0000068401C0849086007480068B0F57A7F1B
:1023F00006DA0648FEF7A0FB00F0F0002028EBD13B
:1024000010BD000048FEFFFF08000020000801404A
:1024100010B54FF416710E4801F006FE00200D496C
:10242000086007E0012000F06DF80A480068401CD1
:102430000849086007480068B0F57A7F06DA064860
:10244000FEF77AFB00F0F0004028EBD110BD000051
:1024500048FEFFFF08000020000801402DE9F04180
:102460000446E07800F0C006E07800F03F056078B0
:1024700000F0010098B1EF102846E91705EB517103
:10248000C910A5EBC101491C01F0FF080B48006809
:1024900020B10A48414602683846904700BF60783C
:1024A00000F0080030B10548406818B1B011034A87
:1024B000516888470020BDE8F08100008C000020B2
:1024C00010B56FF00400FFF703F80A4800680A49E6
:1024D000B0FBF1F0094908700846007800EB4001B4
:1024E000C1EBC0104FF6FF7101EAC000044908803B
:1024F00010BD00001C00002000127A0030000020F7
:10250000320000200146114A12884A434FF0E0236E
:102510005A6100229A611A46126942F001021A6158
:1025200000BF4FF0E022106900F001021AB100F480
:102530008032002AF5D04FF0E022126922F0010229
:102540004FF0E0231A6100229A61704732000020A8
:102550000146114A12784A434FF0E0235A610022A3
:102560009A611A46126942F001021A6100BF4FF0E7
:10257000E022106900F001021AB100F48032002A52
:10258000F5D04FF0E022126922F001024FF0E02373
:102590001A6100229A6170473000002038B5044665
:1025A00064B120208DF8000028208DF80100302033
:1025B0008DF8020038208DF8030004E0A3220421E6
:1025C0006846FDF75DFF6A46042140F69E2002F052
:1025D00075FE02F05FFA38BD3EB5044602208DF864
:1025E0000000CA208DF80100E3208DF802000920C8
:1025F0008DF803006A460421682002F05FFEA320E4
:102600008DF8000004F0400048B1C0208DF80100B2
:10261000C8208DF80200C2208DF8030006E0A32038
:102620008DF801008DF802008DF8030004F4C070ED
:1026300048B1C4208DF80400CC208DF80500C620D8
:102640008DF8060006E0A3208DF804008DF8050043
:102650008DF80600A3208DF807008DF808008DF88E
:1026600009006A460A2140F6A72002F027FE04F07E
:10267000030018B120208DF8000002E0D8208DF86A
:1026800000006A46012140F6B62002F017FE04F071
:10269000200018B1012000F0ADF802E0002000F0A9
:1026A000A9F804F4C07008B304F4807060B1B220DB
:1026B0008DF800008B208DF80100B6208DF8020007
:1026C0009B208DF803000BE0B0208DF800008020E7
:1026D0008DF80100B4208DF8020090208DF80300E1
:1026E0006A46042140F6A22002F0E8FD04F0010051
:1026F00020B3F8208DF800006A4601214FF40B60EA
:1027000002F0DCFDFA21072000F02CFC072000F08D
:10271000F3FB012000F013FC642000F0F3FC4FF405
:10272000FA7000F002FDC821304800F0A3FB282019
:1027300000F0BCFB0A2000F0CCFB08E0D8208DF8AC
:1027400000006A4601214FF40B6002F0B7FD04F06F
:10275000020018B1D9208DF8000002E0D8208DF8D1
:1027600000006A46012140F23D7002F0A7FD04F02E
:10277000040018B1012000F069F802E0002000F028
:1027800065F804F0100018B10120FFF707FF02E020
:102790000020FFF703FF44F008001549488102F0CC
:1027A00079F900201249887304F0400018B10846F6
:1027B000807B801D887304F4C07020B10C48807B3E
:1027C000801D0B49887304F0140020B10848807BF9
:1027D00010300749887304F0030020B10448807B5F
:1027E000001D0349887300203EBD000009E3CA02B2
:1027F0008C0000203EB504466CB10EA1D1E900204A
:102800008968CDE9002002916A4609214FF497605A
:1028100002F054FD3EBD0AA2D2E900109268CDE953
:10282000010200916A4609214FF4976002F046FDCB
:10283000F0E70000B8AAB38DB4980D355D00000034
:10284000B8AAAAAAB088C3C5C700000038B5044614
:1028500064B1C0208DF80000C2208DF80100C420B2
:102860008DF80200C6208DF8030004E08B220421BD
:102870006846FDF705FE6A46042140F6982002F0FE
:102880001DFD02F007F938BD10B5C8234FF4806272
:10289000024940F6F63001F091FF10BDF0680008E3
:1028A0002DE9F04F8DB00746884615469946DDE97B
:1028B000166B0024002030806B49887B5A4605A99E
:1028C00002F048F818B1601E0DB0BDE8F08F664800
:1028D000807A00F01400002867D09DF814000006EC
:1028E0009DF8151040EA01409DF8161040EA0120BD
:1028F0009DF81710084328609DF8180000069DF801
:10290000191040EA01409DF81A1040EA01209DF894
:102910001B10084368609DF81C0000069DF81D1000
:1029200040EA01409DF81E1040EA01209DF81F106A
:102930000843A8609DF8200000069DF8211040EA99
:1029400001409DF8221040EA01209DF82310084321
:10295000E86004F11000C4B22868001401906868AF
:1029600000140290A86800140390E8680014049012
:1029700001984043029901FB0100039901FB01000A
:10298000049901FB010ABAF1706F02DBBAF1885FAA
:1029900005DD02F07FF800203080401E94E7B6F994
:1029A000000040F48070308000BF2F48807A00F033
:1029B000400020B305A9601C085C095D40EA0120C5
:1029C00000B2A8F8000005A9E01C095C05AAA01C3B
:1029D000105C41EA002000B2A8F8020005A9601DC1
:1029E000095C201D105C41EA002000B2A8F8040038
:1029F000A01DC4B2B6F9000040F0080030801A48AB
:102A0000408900F4C07008B305A9601C085C095D2A
:102A100040EA012000B2388005A9E01C095C05AA43
:102A2000A01C105C41EA002000B2788005A9601D5E
:102A3000095C201D105C41EA002000B2B880A01D96
:102A4000C4B2B6F9000040F0700030800648807AC9
:102A500000F0030018B105A90819FFF7FFFC48466C
:102A600001F0E0FA00202FE78C00002070B588B05C
:102A7000064601A801F0F6FCBDF804000021C903D8
:102A800041EA5045C4034448007A00F0030056F878
:102A9000200005904048007A00F0040010B105982D
:102AA000404205903C48007AC0F3C10056F820002F
:102AB00006903948007A00F0200010B10698404294
:102AC00006903548007AC0F3811056F82000079030
:102AD0003148008900F4807010B107984042079097
:102AE0000598C117A0FB042301FB043100FB05106E
:102AF000810041EA927005900698C117A0FB04235B
:102B000001FB043100FB0510810041EA9270069040
:102B10000798C117A0FB042301FB043100FB05103B
:102B2000810041EA927007900598000E8DF8080028
:102B30000598000C8DF809000598000A8DF80A0028
:102B40000598C0B28DF80B000698000E8DF80C00A9
:102B50000698000C8DF80D000698000A8DF80E00FE
:102B60000698C0B28DF80F000798000E8DF810007F
:102B70000798000C8DF811000798000A8DF81200D4
:102B80000798C0B28DF8130002AA0C214FF42570EB
:102B900002F094FB08B070BD8C00002030B585B009
:102BA000044616A207CA02AB07C3C82C03DD4FF0C8
:102BB000FF3005B030BDC82090FBF4F0401E85B258
:102BC000280A8DF80000E8B28DF801006A4602215B
:102BD00040F2162002F072FB10B14FF0FF30E8E730
:102BE00002AA0C2140F6C12002F068FB10B14FF0A0
:102BF000FF30DEE7044884810020DAE7FEF2ABC450
:102C0000AAF1DFDFBBAFDFDF8C0000201FB5044679
:102C10004848007A00F0030054F82000019045482D
:102C2000007A00F0040010B1019840420190414840
:102C3000007AC0F3C10054F8200002903D48007AA9
:102C400000F0200010B10298404202903948007A0A
:102C5000C0F3811054F8200003903648008900F436
:102C6000807010B10398404203903349019880FB73
:102C70000101800F40EA810001902F49029880FBFA
:102C80000110820042EA917002902B49039880FB68
:102C90000110820042EA917003900198000E8DF8B5
:102CA00000000198000C8DF801000198000A8DF8D1
:102CB00002000198C0B28DF803006A4604214FF467
:102CC000747002F0FBFA18B14FF0FF3004B010BD81
:102CD0000298000E8DF800000298000C8DF801009B
:102CE0000298000A8DF802000298C0B28DF8030025
:102CF0006A4604214FF4757002F0E0FA10B14FF00B
:102D0000FF30E3E70398000E8DF800000398000CF5
:102D10008DF801000398000A8DF802000398C0B2F4
:102D20008DF803006A4604214FF4767002F0C6FA6B
:102D3000CCE700008C00002009E3CA0210B586B081
:102D4000044647A00068039046A00068029046A091
:102D50000068019045A00068009004F0030003A9FA
:102D6000085C8DF8140003A8C4F3C101405C8DF821
:102D7000150003A8C4F38111405C8DF8160004F01F
:102D8000030002A9085C8DF8100002A8C4F3C10179
:102D9000405C8DF8110002A8C4F38111405C8DF8ED
:102DA000120005AA032140F2264002F087FA18B16A
:102DB0004FF0FF3006B010BD04AA032140F22A40B4
:102DC00002F07CFA10B14FF0FF30F3E70198059064
:102DD0000098049004F0040058B19DF8140040F0ED
:102DE00001008DF814009DF8100040F001008DF8EE
:102DF000100004F0200058B19DF8150040F00100CB
:102E00008DF815009DF8110040F001008DF81100BB
:102E100004F4807058B19DF8160040F001008DF860
:102E200016009DF8120040F001008DF8120005AA6E
:102E300003214FF4886002F041FA10B14FF0FF30E7
:102E4000B8E704AA032140F2314002F037FA10B18A
:102E50004FF0FF30AEE7064804810020AAE70000EB
:102E60004CCD6C000CC92C00365676002646660008
:102E70008C000020F8B505460E464FF47A7095FB9D
:102E8000F0F000FB06F4200E8DF80000200C8DF809
:102E90000100200A8DF80200E0B28DF803006A46B6
:102EA00004214FF4AE7002F009FAF8BD38B50446BB
:102EB000052094FBF0F084B220128DF80000E0B2FF
:102EC0008DF801006A4602214FF4AD7002F0F6F968
:102ED00038BD38B50446052094FBF0F084B22012CA
:102EE0008DF80000E0B28DF801006A4602214FF42F
:102EF000AC7002F0E3F938BD38B50446002000900C
:102F000004F0010020B19DF8000040F03000009076
:102F100004F0020020B19DF8000040F00C00009089
:102F200004F0040020B19DF8000040F00300009080
:102F30006A4601214FF4A47002F0C0F938BD38B5DB
:102F40000446012C01DA012402E0042C00DD0424F3
:102F5000601EC0B200906A46012140F24F1002F09C
:102F6000ADF938BD2DE9FC4706460F4606F00700CF
:102F700010B1B7F5C86F03DD4FF0FF30BDE8FC8737
:102F8000384603F059FA8146594903F00BF9804657
:102F9000684601F041FA9DF80000022806D0042896
:102FA00016D0082826D0102848D135E04FF08D41A2
:102FB000404603F089FA814603F006FA84B24D498F
:102FC000404603F081FA814603F0FEF985B238E00D
:102FD0004FF08C41404603F077FA814603F0F4F954
:102FE00084B24549404603F06FFA814603F0ECF99C
:102FF00085B226E04FF08B41404603F065FA8146EA
:1030000003F0E2F984B23D49404603F05DFA81469F
:1030100003F0DAF985B214E04FF08A41404603F03C
:1030200053FA814603F0D0F984B23549404603F0A3
:103030004BFA814603F0C8F985B202E04FF0FF3049
:103040009CE700BF20128DF80400E0B28DF8050067
:1030500028128DF80600E8B28DF8070006F001008E
:10306000A0B101AA02214FF4EA7002F027F910B1D1
:103070004FF0FF3082E70DF1060202214FF492700B
:1030800002F01CF910B14FF0FF3077E706F00200B4
:10309000A0B101AA02214FF4EC7002F00FF910B1B7
:1030A0004FF0FF306AE70DF1060202214FF49470F1
:1030B00002F004F910B14FF0FF305FE706F00400B2
:1030C000A0B101AA02214FF4EE7002F0F7F810B19E
:1030D0004FF0FF3052E70DF1060202214FF49670D7
:1030E00002F0ECF810B14FF0FF3047E7002045E761
:1030F00000004843000040460000C0450000404535
:103100000000C04438B50446052094FBF0F085B2B9
:1031100028128DF80000E8B28DF801006A460221FD
:103120004FF4EF7002F0CAF838BD38B504460520F8
:1031300094FBF0F085B228128DF80000E8B28DF80B
:1031400001006A4602214FF4ED7002F0B7F838BD75
:1031500010B50446002C07DB00200A490860012056
:103160000949C1F88C0107E00120064908600020E8
:103170000549C1F88C016442A1B20448FEF7FDFB89
:1031800010BD00008881214200802142002C0140B6
:1031900000BF054A128802F04002002AF9D0C2B2EC
:1031A000014B1B1D1A807047003801407CB5054655
:1031B00028494968087801AB04220D21FDF758FF22
:1031C00008B107207CBD9DF80700C0F301109DF8F1
:1031D000041001F0E00140EAE1008DF800009DF8E4
:1031E0000700C0F381009DF8051001F0E00140EAFE
:1031F000E1008DF801009DF8070000F003009DF844
:10320000061001F0E00140EAE1008DF80200002420
:103210001CE01DF8040018B9002045F8240013E054
:103220000D4845F8240006E055F824000B4903F04A
:103230004BF945F824001DF80400401EC0B20DF8FB
:1032400004000028F0D100BF601CC4B2032CE0DBF6
:103250000020B7E7540000207B14AE3E1D5A843F87
:103260002DE9F04F87B005460C46914601208DF8B8
:10327000100000208DF81100FE4A1268917CFD4A72
:103280005268107804AB0222FDF798FF20B14FF08E
:10329000FF3007B0BDE8F08FC820FFF733F90020FA
:1032A0008DF81000F34A1268D17BF24A5268107808
:1032B00004AB0122FDF782FF10B14FF0FF30E8E7C9
:1032C000EC4A12685179EB4A5268107804AB01223B
:1032D000FDF774FF10B14FF0FF30DAE7E54A1268EE
:1032E000917CE44A5268107804AB0122FDF766FF36
:1032F00010B14FF0FF30CCE7DE4A1268D17DDD4AD5
:103300005268107804AB0122FDF758FF10B14FF05E
:10331000FF30BEE7D74A12681179D64A5268107852
:1033200004AB0122FDF74AFF10B14FF0FF30B0E7C8
:103330000C208DF81000CF4A12681179CD4A5268DE
:10334000107804AB0122FDF739FF10B14FF0FF30C8
:103350009FE70F20FFF7D6F8C648806A407A8DF8BD
:103360001000C44A12689178C24A5268107804ABBF
:103370000122FDF723FF10B14FF0FF3089E7BD4870
:10338000806A007A8DF81000BA4A12685178B94AFA
:103390005268107804AB0122FDF710FF10B14FF016
:1033A000FF3076E7B9F1000F07D0B248806A807A23
:1033B00040F0E0008DF8100004E0AE48806A807AAA
:1033C0008DF81000AB4A12689179AA4A52681078B9
:1033D00004AB0122FDF7F2FE10B14FF0FF3058E7C9
:1033E000B9F1000F07D0A348806AC07A40F0E0002E
:1033F0008DF8100003E0A048C07A8DF810009D4AB7
:103400001268D1799B4A5268107804AB0122FDF70B
:10341000D5FE10B14FF0FF303BE7B9F1000F02D0FD
:10342000C820FFF76FF840208DF81000914A12680D
:103430001179904A5268107804AB0122FDF7BEFE64
:1034400010B14FF0FF3024E778208DF81000894A42
:1034500012685179874A5268107804AB0122FDF74F
:10346000ADFE10B14FF0FF3013E783498889FFF7B5
:1034700049F800208DF810007E4A126851797D4A83
:103480005268107804AB0122FDF798FE10B14FF09E
:10349000FF30FEE6774A1268917A764A52681078D1
:1034A00004AB0222FDF7E4FD10B14FF0FF30F0E66F
:1034B0009DF811009DF8101040EA012B0C209BFB99
:1034C000F0F0C6B20020A86068602860A06060606C
:1034D0002060824665E0674A1268D17A654A526880
:1034E000107804AB0C22FDF7C3FD10B14FF0FF3094
:1034F000CFE69DF811009DF8101040EA012000B2BF
:10350000ADF808009DF813009DF8121040EA012064
:1035100000B2ADF80A009DF815009DF8141040EABD
:10352000012000B2ADF80C00BDF908102068084475
:103530002060BDF90A10606808446060BDF90C1095
:10354000A0680844A0609DF817009DF8161040EA96
:10355000012000B2ADF800009DF819009DF8181088
:1035600040EA012000B2ADF802009DF81B009DF872
:103570001A1040EA012000B2ADF80400BDF90010B5
:10358000286808442860BDF902106868084468602B
:10359000BDF90410A8680844A8600AF1010000F011
:1035A000FF0AB24597DB3448D0F800C02868C1173D
:1035B000090441EA10410704624600233846FCF73B
:1035C0002AFE32460023CDE90201FCF724FE2860E2
:1035D0002948D0F800C06868C117090441EA1041C1
:1035E0000704624600233846FCF715FE32460023E6
:1035F000CDE90201FCF70FFE68601F48D0F800C05B
:10360000A868C117090441EA104107046246002373
:103610003846FCF700FE32460023CDE90201FCF7F4
:10362000FAFDA8601448D0F804C02168C817000447
:1036300040EA11480F046246002338464146FCF731
:10364000EAFD32460023CDE90201FCF7E4FD2060EB
:103650000948D0F804C06068C117090441EA104164
:103660000704624600233846FCF7D5FD32460023A6
:1036700004E0000054000020C8680008CDE9020101
:10368000FCF7C9FD60601148D0F804C0A068C117FC
:10369000090441EA10410704624600233846FCF75A
:1036A000BAFD32460023CDE90201FCF7B4FDA0606B
:1036B000A068002804DDA068A0F58030A06003E0C9
:1036C000A06800F58030A0600020E2E5C86800082E
:1036D0002DE9FC5F06460F4600253D4949680878FC
:1036E00001AB03220D21FDF7C3FC10B10720BDE89B
:1036F000FC9F9DF8040000F01F008DF804009DF869
:10370000050000F01F008DF805009DF8060000F090
:103710001F008DF80600002456E056F8240057F8E4
:103720002410A0EB010BBBF1000F01DB594601E0B7
:10373000CBF10001084602F067FE4FF08F41009088
:1037400002F030FD814601A8005D68B32149086898
:1037500002F072FE834659461F4802F023FD804660
:1037600004E01E49404602F0AFFE804601A8005D1D
:10377000401EC0B201A908550028F2D14146484672
:1037800002F010FD83464FF07E5102F09BFF82460F
:103790002AF0004B0F488169584602F061FF12D2AF
:1037A0000120A04005430EE00A480169484602F0A6
:1037B00057FE05D307484169484602F051FF02D23F
:1037C0000120A0400543641C032CA6DB28468EE79D
:1037D00054000020C868000800B04C4554E3853F01
:1037E00010B50446204600F00FF80346E01C00F038
:1037F0000BF843EAC00083B2A01D00F005F843EACD
:10380000801083B2184610BD014691F90020002AAD
:1038100001DD00201EE091F90020002A01DA0420D9
:1038200018E091F90120002A01DD012012E091F950
:103830000120002A01DA05200CE091F90220002A7B
:1038400001DD022006E091F90220002A01DA0620BB
:1038500000E0072070470000FEF732FE4FF41650DC
:1038600001F024FEFDF7FCFAFDF780FB002140F299
:103870008330FDF773FE002140F28330FDF7D6FE62
:10388000FDF786F8FDF79AFB00BF00F077FD0028F2
:10389000FBD14FF44870FEF735FEA7E3FE480088E1
:1038A00001287DD1FD48FEF79FF9FD4908700020F1
:1038B000F9490880FA480078302806D031284FD0DE
:1038C000322877D033286DD1C5E06121F348FEF767
:1038D00090F90A20FEF716FE6121F048FEF789F9FB
:1038E0000A20FEF70FFE6121EC48FEF782F940F254
:1038F0001221484200F098FB08E0EA4AEA49EB4806
:1039000000F02AFC10B90020E9490870E949E548AF
:10391000006802F0A5FEF0D3E749E248006802F033
:103920009FFDEAD30020DF4908600021084600F02F
:103930007BFB0A20FEF7E6FD4FF4D271084600F04B
:1039400073FB0020D64908700120DC49087000BFD5
:10395000DB48FDF7F1F800F0F0000028F8D09AE01D
:103960006121CE48FEF745F90A20FEF7CBFD612123
:10397000CA48FEF73EF90A20FEF7C4FD6121C74898
:10398000FEF737F94FF4D271084600F04DFB0020E6
:10399000C34908700120C949087000BFC84802E047
:1039A0007AE007E073E0FDF7C7F800F0F0000028C8
:1039B000F4D070E06121B948FEF71BF90A20FEF748
:1039C000A1FD6121B548FEF714F90A20FEF79AFD22
:1039D0006121B248FEF70DF9BA49484200F024FBD4
:1039E0000FE0B04AB049B14800F0B6FB10B9002072
:1039F000AF490870AB480168002002F063FEA94996
:103A00000860AC49A748006802F02AFEE9D3AA4939
:103A1000A448006802F024FDE3D30020A149086017
:103A20000021084600F000FB0A20FEF76BFD4FF472
:103A3000D271084600F0F8FA002099490870012078
:103A40009E49087000BF9E48FDF776F800F0F00030
:103A50000028F8D01FE065219048FEF7CAF80A2038
:103A6000FEF750FD65218D48FEF7C3F80A20FEF7EA
:103A700049FD65218948FEF7BCF80021084600F0A1
:103A8000D3FA00208D4908708549087000BF0020D6
:103A90008349087000BF00BF88480078012877D1AB
:103AA00089480068F0B189480068D8B186480C3070
:103AB0000068B8B186480068A0B98548001F006852
:103AC00080B983480838006860B9804808300068C9
:103AD00040B97E48001D006820B97C48001F00687E
:103AE000002874D07848006838B17848006820B160
:103AF00075480C30006800286AD10120FEF702FDED
:103B00007148006838B17148006820B16E480C30C7
:103B100000680028C3D16D480068002877D10120D3
:103B2000FEF7F0FC694800680028B8D104E04FF4C3
:103B3000CD71084600F078FA0A210120FDF71CF843
:103B400040F6FC0188420FDC0A210020FDF714F842
:103B500040F69801884207DC0A210220FDF70CF8A4
:103B600040F698018842E2DB40F28230FFF7F0FA3B
:103B70000021084600F058FA4FF47A70FEF7C2FCB4
:103B80004FF47A70FEF7BEFC00205249086008E04E
:103B9000CEE10120FEF7B6FC4E480068401C4D49BE
:103BA00008604C480068B0F57A7F0CDA4648006837
:103BB0000028EED0454800680028EAD042480C3082
:103BC00000680028E5D000204249086009E0B0E123
:103BD0002BE10120FEF796FC3E480068401C3D4961
:103BE00008603C480068B0F57A7F0CDA3648006817
:103BF0000028EED0354800680028EAD032480C3062
:103C000000680028E5D000203249086008E0A1E003
:103C10000120FEF777FC2F480068401C2D49086002
:103C20002C480068B0F57A7F0CDA27480068002835
:103C3000EED0264800680028EAD023480C300068FF
:103C40000028E5D00020FFF783FA62211348FDF732
:103C5000D0FF0A20FEF756FC62211048FDF7C9FF8D
:103C60000A20FEF74FFC62210C48FDF7C2FF4FF41B
:103C7000FA70FEF747FC64210848FDF7BAFF0A20F6
:103C8000FEF740FC64210548FDF7B3FF0A20FEF76C
:103C900039FC642101481FE03C000020003801404D
:103CA0000000002014000020100000200C00002064
:103CB000020000200000AE420000A44201000020EB
:103CC00000080140EEFDFFFF300121420C012242BD
:103CD0003081214208000020FDF78BFFC4490846CF
:103CE00000F0A2F9C820FEF70DFC0021084600F004
:103CF0009BF9FDF763F900BF00F040FB0028FBD102
:103D0000BB493239484200F08FF90FE0B94ABA494D
:103D1000BA4800F021FA10B90020B9490870B54836
:103D20000168002002F0CEFCB2490860B549B148F4
:103D3000006802F095FCE9D3B349AE48006802F090
:103D40008FFBE3D30020AB4908600021084600F058
:103D50006BF94BE1AD48006880BBAC480C300068A3
:103D600060B30120FEF7CEFBA848006880B9A748E1
:103D70000C30006860B10021084600F055F932208F
:103D8000FEF7C0FB40F24E2199483C3800F04CF958
:103D900000209F49086007E00120FEF7B3FB9C4824
:103DA0000068401C9A49086099480068B0F5FA6FAD
:103DB000CFDA984800680028CBD0EDE7FFE79348BA
:103DC00000680028C5D091480C3000680028C0D198
:103DD0000120FEF797FB8D48006880B18B480C30BE
:103DE000006860B90021084600F01EF93220FEF795
:103DF00089FB7F498C394FF4FF7000F015F90020E2
:103E00008349086007E00120FEF77CFB80480068DA
:103E1000401C7F4908607E480068B0F5FA6F98DA68
:103E20007C480068002894D0EDE77B48006838B9EA
:103E30007948001F006818B977480838006880B3CF
:103E40000120FEF75FFB7448006838B97248001F14
:103E5000006818B970480838006860B10021084649
:103E600000F0E2F86420FEF74DFB61493C394FF465
:103E7000E67000F0D9F800206549086007E00120ED
:103E8000FEF740FB62480068401C614908606048DA
:103E90000068B0F57A7F4BDA5E480068002847D0AA
:103EA000EDE7FFE75B480830006838B95948001D66
:103EB000006818B95748001F006880B30120FEF75A
:103EC00021FB54480830006838B95248001D00688A
:103ED00018B95048001F006860B10021084600F082
:103EE000A3F86420FEF70EFB4FF4E67140483C381F
:103EF00000F09AF800204649086007E00120FEF72C
:103F000001FB43480068401C414908604048006884
:103F1000B0F57A7F6ADA3F48006848B1EEE7FFE71C
:103F20000020FFF715F94FF4D271084600F07CF835
:103F30005CE03A48FCF700FE00F0F000202814D0C6
:103F400003DC38B110284AD11DE040282AD080284F
:103F500045D135E001F0FAFA0720314908704FF4F5
:103F6000D271084600F060F83FE001F035FB012017
:103F70002B490870002140F2262000F055F86420FB
:103F8000FEF7C0FA31E001F027FB0021084600F0FF
:103F90004BF89620FEF7B6FA022021490870FEF78A
:103FA00011FA22E001F018FB04201D49087040F2CC
:103FB0002621002000F038F86420FEF7A3FA14E070
:103FC00001F00AFB0021084600F02EF89620FEF7CB
:103FD00099FA052012490870FEF71AFA05E04FF425
:103FE000D271084600F020F800BF00BF56E4000080
:103FF0003EFEFFFF14000020100000200C000020F7
:10400000020000200000AA4200009C423001214230
:10401000080000200C0122423081214200080140AA
:10402000030000207047000070B504460D46002CC8
:1040300010DB002D0EDB01202649086000202649F8
:10404000C1F8A00101202549086000202449C1F8D9
:10405000800135E0002C10DD002D0EDA01201D4915
:10406000086000201C49C1F8A0011C49086001201B
:104070001B49C1F880016D4222E0002C10DA002DAE
:104080000EDD00201349086001201349C1F8A0018A
:104090001249086000201249C1F8800164420FE013
:1040A00000200C49086001200B49C1F8A001002044
:1040B0000A49086001200A49C1F880016D42644242
:1040C000A1B20848FDF75BFCA9B20648FDF759FC10
:1040D00070BD0000A40122420000224284812142DE
:1040E000008021420008004070B50446002624F0FC
:1040F0000104184890F8240008B1002070BD15484C
:10410000807A10B94FF0FF30F8E71248057C807ACA
:104110002040104908740846007CA04202D04FF0AD
:10412000FF3600E0002614B90A48007D18B10120CE
:1041300001F04EF902E0002001F04AF93CB100F034
:10414000A9FC20B1034805744FF0FF30D6E7304694
:10415000D4E70000540000202DE9F04F99B0044648
:104160000D4616464FF07E574FF000084FF00009FD
:104170004FF0000A12A813A918AB0EAACDE900103F
:1041800014A916A8FEF78CFB18B1012019B0BDE8E0
:10419000F08FBDF84C0000F4807000287ED00E989F
:1041A00002F032F983464FF09D4101F0FBFF0746D4
:1041B0000F9802F029F983464FF09D4101F0F2FF7C
:1041C0008046109802F020F983464FF09D4101F09F
:1041D000E9FF8146119802F017F983464FF09D419F
:1041E00001F0E0FF824639464FF0804002F06CF962
:1041F0004946059002F068F9414607904FF040406B
:1042000002F062F95146059002F05EF906900799B6
:1042100001F05AFF834601F02BFFCDE90801FDF7BD
:10422000C9FD4FF06632544BCDE90A0101F046FC5E
:10423000CDE90C0101F008FA206049464FF08040BA
:1042400002F042F94946029002F03EF941460490DC
:104250004FF0404002F038F94146029002F034F944
:104260000390049902F02EFA83464FF07E5101F03C
:104270002BFF059001F0FCFECDE9080139464FF017
:10428000804002F021F94146039002F01DF94946B1
:1042900004904FF0804002F017F900E068E05146CA
:1042A000039002F011F98346049901F00DFF059087
:1042B00001F0DEFECDE90601DDE90823FDF7C2FFCE
:1042C0004FF066322C4BCDE90A0101F0F7FBCDE946
:1042D0000C0101F0B9F928605146504602F0F4F89B
:1042E00049460490484602F0EFF8414603904046A4
:1042F00002F0EAF839460190384602F0E5F80090FD
:10430000019901F0E1FE0290039902F0DBF9834686
:10431000049902F0D7F9059001F0AAFECDE9080151
:104320005146384602F0D0F849460490404602F023
:10433000CBF80390049901F0C7FE4FF0804105903F
:1043400002F0C2F8834601F093FECDE90601DDE9F3
:104350000823FDF777FF4FF06632074BCDE90A01DE
:1043600001F0ACFBCDE90C0101F06EF9306001E029
:1043700002200BE7002009E766A64C4070B5002438
:10438000FCF73CFC00F022F9002840D1782000F036
:104390002DFFC4B20CB1012070BD7820FFF7A4FE40
:1043A000C4B20CB10220F7E7642000F0D1FEC4B221
:1043B0000CB10320F0E7FEF767FAC4B20CB1042099
:1043C000EAE71448FFF70CFA0546FEF7B7FCC4B25B
:1043D0000CB10520E0E740F27310FEF7FDF8C4B21F
:1043E0000CB10620D8E76420FEF7D8FBC4B20CB1AC
:1043F0000720D1E700F0A2FF04460CB10820CBE76C
:10440000012000F0A1FDC4B20CB10920C4E70020D6
:10441000C2E700008000002001461148407A30B118
:10442000012807D0022808D003280CD108E0022078
:1044300008700BE00420087008E00820087005E010
:104440001020087002E04FF0FF30704700BF0448B2
:10445000C07C18B108784006000E08700020F4E710
:104460005400002001461348407A30B1012808D09A
:1044700002280AD0032810D10BE04FF480400880B6
:104480000EE041F69C7008800AE04FF480500880EE
:1044900006E04FF40060088002E04FF0FF30704704
:1044A00000BF0448C07C10B108884010088000207C
:1044B000F5E700005400002001460248007C087027
:1044C000002070475400002001460F48007A30B1A8
:1044D000012807D0022809D003280FD10AE0FA20CA
:1044E00008800EE04FF4FA7008800AE04FF47A700A
:1044F000088006E04FF4FA60088002E0002008809F
:1045000000BF00BF002070475400002001460E4845
:10451000007A30B1012807D0022808D003280CD136
:1045200008E00A4808600BE00948086008E009480C
:10453000086005E00848086002E04FF0FF3070476F
:1045400000BF0020FBE700005400002000000343F0
:104550000000834233330342333383410146124820
:10456000C07A082817D2DFE800F01704070A0D10F8
:104570001318BC20088013E06220088010E02A2075
:1045800008800DE0142008800AE00A20088007E077
:104590000520088004E000BF00BF0020088000BFA5
:1045A00000BF00207047000054000020014606486C
:1045B00090F8240010B14FF0FF3070470248C089D6
:1045C00008800020F9E70000540000201CB580207E
:1045D0008DF80000654A1268917C644A5268107830
:1045E0006B460122FCF7EAFD10B14FF0FF301CBD15
:1045F0006420FDF787FF00208DF800005B4A1268F9
:10460000917C5A4A526810786B460122FCF7D6FD1D
:1046100010B14FF0FF30EAE7544A1268917D534AD7
:10462000526810786B460622FCF722FD10B14FF05D
:10463000FF30DCE79DF80500C007400F9DF8031030
:1046400001F0010140EA41009DF8011001F0010173
:1046500040EA010494B1012C03D101214348C17403
:1046600031E0022C03D100214048C1742BE02146E7
:104670003FA0FBF7F5FD4FF0FF30B8E73B4A12686B
:10468000D1783A4A526810786B460122FCF7F0FC68
:1046900010B14FF0FF30AAE79DF8000000F00F04C2
:1046A0002CB93D48FBF7DCFD4FF0FF309FE7042CB1
:1046B00006D13AA0FBF7D4FD01212C48C17402E0D9
:1046C00000212A48C174FF2128488172FF20274910
:1046D0000872FF2125484172C1724FF6FF71C181F6
:1046E000FF21017481740121017380F822100021DF
:1046F00080F82310417501751630016041608160BA
:10470000163880F8241080F82510C1844FF4FA6020
:1047100000F062FC10B14FF0FF3068E7022000F0BB
:104720002BFB10B14FF0FF3061E72A2000F0CEFCE8
:1047300010B14FF0FF305AE7322000F009FD10B100
:104740004FF0FF3053E70020FFF7CEFC10B14FF0E1
:10475000FF304CE7002000F051FB10B14FF0FF306C
:1047600045E7002000F042FD002040E75400002013
:10477000556E737570706F7274656420736F6674B4
:10478000776172652070726F6475637420726576EC
:104790002025642E0A000000E875000848616C6658
:1047A0002073656E736974697669747920706172BB
:1047B0007420666F756E642E0A0000002DE9F043C8
:1047C00085B005460E4690469946294890F8250042
:1047D00020B14FF0FF3005B0BDE8F08316B94FF0BF
:1047E000FF30F8E7002423E0281B102801DD10200B
:1047F00000E0281B87B232193946204600F05EFDE2
:1048000010B14FF0FF30E6E701AA3946204600F02C
:1048100001F910B14FF0FF30DDE730193A4601A938
:10482000FBF702FE10B16FF00100D4E7E01984B28B
:10483000AC42D9DB4FEA28208DF8000008F0FF00D9
:104840008DF801000A4A1268917E094A5268107870
:104850006B460222FCF7B2FC10B14FF0FF30BAE712
:104860000121034880F82510A0F826900020B2E727
:104870005400002038B50446282C02DD4FF0FF30EC
:1048800038BDDCB9002000F0EBFB00208DF8000003
:1048900007208DF801002E4A1268917C2C4A52683C
:1048A00010786B460222FCF789FC10B14FF0FF3004
:1048B000E6E70021264801750020E1E7012000F02D
:1048C000CFFB20208DF80000012C06D100208DF8B0
:1048D0000100052000F0FAFB17E0052C06DC0120A2
:1048E0008DF80100052000F0F1FB0EE0142C06DC31
:1048F00002208DF801000A2000F0E8FB05E003200B
:104900008DF80100142000F0E1FB9DF80100072163
:1049100001EB8010C0B28DF801000D4A1268917C45
:104920000B4A526810786B460222FCF747FC10B124
:104930004FF0FF30A4E70821054881720021017380
:10494000012101750020FFF7CFFB002098E7000050
:1049500054000020F8B504460F4616462C4890F83F
:10496000240010B94FF0FF30F8BD2948807A10B903
:104970004FF0FF30F8E7264A1268917A244A5268CD
:1049800010786B460222FCF773FB10B14FF0FF303A
:10499000EAE79DF801009DF8001040EA0125A542D4
:1049A00003DA00203070401EDEE719484068408876
:1049B000B5EB600F17DD164A1268517C144A526835
:1049C00010786B460122FCF753FB10B14FF0FF301B
:1049D000CAE79DF8000000F0100020B100F05AF87E
:1049E0006FF00100C0E7E2B2094B1B68D97A084BAF
:1049F0005B6818783B46FCF73BFB10B14FF0FF308B
:104A0000B2E795FBF4F0401E30700020ACE70000E8
:104A100054000020F8B504460D46164616B94FF06E
:104A2000FF30F8BD1A48807A10B94FF0FF30F8E730
:104A300020128DF80000E0B28DF801009DF8010011
:104A40002844134949684989884202DD4FF0FF3004
:104A5000E7E70F4A1268117E0D4A526810786B46DC
:104A60000222FCF7ABFB10B14FF0FF30D9E7EAB2FE
:104A7000074B1B68597D064B5B6818783346FCF77B
:104A8000F7FA10B14FF0FF30CBE70020C9E7000084
:104A90005400002008B57048807A10B94FF0FF30FC
:104AA00008BD002000906C4A1268D17B6A4A5268A7
:104AB00010786B460122FCF781FB10B14FF0FF30FC
:104AC000EEE7654A12685179634A526810786B467E
:104AD0000122FCF773FB10B14FF0FF30E0E75E4AB4
:104AE000126811795C4A526810786B460122FCF713
:104AF00065FB10B14FF0FF30D2E7574890F8240023
:104B0000002853D00C200090534A12681179524A61
:104B1000526810786B460122FCF750FB10B14FF041
:104B2000FF30BDE73220FDF7EDFCC02000904A4881
:104B3000807A00F0010020B19DF8000040F02000D4
:104B40000090454A12681179434A526810786B46C2
:104B50000122FCF733FB10B14FF0FF30A0E73E48D5
:104B6000407C10B10220009001E0002000903A4A01
:104B70001268D17B384A526810786B460122FCF7E4
:104B80001DFB10B14FF0FF308AE700200090324A41
:104B900012685179304A526810786B460122FCF74E
:104BA0000DFB002855D04FF0FF3079E7042000902E
:104BB000294A12681179284A526810786B460122F6
:104BC000FCF7FCFA10B14FF0FF3069E72248807C17
:104BD00020B92148807A00F0010010B940200090EF
:104BE00001E0602000901C4A126811791A4A52684C
:104BF00010786B460122FCF7E1FA10B14FF0FF305C
:104C00004EE73220FDF77EFC1348407C10B10120B6
:104C1000009001E0002000900F4A1268D17B0E4AFC
:104C2000526810786B460122FCF7C8FA10B14FF0B9
:104C3000FF3035E7084A12685179074A5268107800
:104C4000054B10330122FCF7B9FA10B14FF0FF30D9
:104C500026E7002024E70000540000202DE9F04F53
:104C60008DB083460F4602200C90424890F82400F5
:104C700020B1002000F068F9012600E0002603A81A
:104C8000FFF722FC05A8FFF7C7FB01A8FFF766FCAA
:104C900002A8FFF78BFC374890F80AA004A8FFF79A
:104CA0000BFC002407E0002239465846FEF7D8FAEC
:104CB00000B902E0641C022CF5DB00BF022C01D11C
:104CC000002528E0002407E0012206A909A8FEF734
:104CD000C7FA00B902E0641C022CF5DB00BF022C0D
:104CE00001D1002517E006A93846FDF70FF800F0BE
:104CF000FF0809A95846FEF7EBFC00F0FF09002564
:104D0000B9F1000F01D145F00105B8F1000F01D153
:104D100045F0020500BFFF2016490872FF21154823
:104D20004172C1724FF6FF71C181FF21817201741E
:104D300001210173BDF80C0000F04EF99DF814003C
:104D400000F01AF8BDF8040000F0C0F9BDF8080042
:104D500000F0FEF9504600F049FA9DF81000FFF708
:104D6000C3F916B1012000F0EFF828460DB0BDE8F8
:104D7000F08F00005400002038B504461E48807AA9
:104D800010B94FF0FF3038BD022C06D0042C07D0EC
:104D9000082C08D0102C0CD108E0002000900BE06B
:104DA0000820009008E01020009005E018200090F6
:104DB00002E04FF0FF30E6E700BF0F48407A9DF871
:104DC0000010B0EBE10F01D10020DCE70A4A1268C5
:104DD000D179094A526810786B460122FCF7EEF946
:104DE00010B14FF0FF30CEE79DF80000C11002482F
:104DF00041720020C7E700005400002038B5044687
:104E00005048807CA04201D1002038BD002C46D003
:104E10004C4A126811794B4A526810786B4601224D
:104E2000FCF726F910B14FF0FF30EEE79DF80000D7
:104E300020F020000090434A12681179414A5268DC
:104E400010786B460122FCF7B9F910B14FF0FF3032
:104E5000DBE70320FDF756FB02200090394890F86D
:104E6000220020B19DF8000040F0800000903548FD
:104E700090F8230020B19DF8000040F03000009031
:104E8000304A1268117D2F4A526810786B46012211
:104E9000FCF794F9002851D04FF0FF30B5E7294ACC
:104EA00012681179274A526810786B460122FCF784
:104EB000DFF810B14FF0FF30A7E72248807A00F00A
:104EC000010028B19DF8000040F02000009004E0AF
:104ED0009DF8000020F0200000901A4A1268117915
:104EE000184A526810786B460122FCF767F910B136
:104EF0004FF0FF3089E70320FDF704FB114890F8DD
:104F0000220010B18020009001E0002000900D48A8
:104F100090F8230020B19DF8000040F03000009090
:104F2000084A1268117D074A526810786B460122C0
:104F3000FCF744F910B14FF0FF3066E70148847484
:104F4000002062E75400002038B50446214890F85C
:104F50002400A04201D1002038BD24B31D4890F8A0
:104F6000250010B94FF0FF30F6E7002000F030FACE
:104F70000020FFF743FF1749C88C00F0E9F8002034
:104F800000901449496808786B4601222321FCF7F8
:104F900015F901210F4880F82410012000F018FABB
:104FA000FFF778FD13E0002000F012FA0948007CBA
:104FB00000900849496808786B4601222321FCF7D4
:104FC000FDF80021034880F82410FFF763FD00205E
:104FD000C2E700005400002038B504461F48807A1C
:104FE00010B94FF0FF3038BDFA2C09D0B4F5FA7F74
:104FF00009D0B4F57A7F09D0B4F5FA6F0CD108E086
:10500000002000900BE00820009008E010200090A5
:1050100005E01820009002E04FF0FF30E3E700BF0A
:105020000E48007A9DF80010B0EBE10F01D100208E
:10503000D9E70A4A12689179084A526810786B4693
:105040000122FCF7BBF810B14FF0FF30CBE79DF821
:105050000000C010014908720020C4E7540000207D
:1050600038B50446184890F82300A04201D100202A
:1050700038BD14B13020009001E0002000901248AB
:10508000807C20B19DF8000040F0020000900E48A6
:1050900090F8220020B19DF8000040F080000090C0
:1050A000094A1268117D084A526810786B4601223D
:1050B000FCF784F810B14FF0FF30D9E7024880F8D0
:1050C00023400020D4E700005400002038B50446F7
:1050D0001E48807A10B94FF0FF3038BDBC2C02DB7F
:1050E0000120009015E0622C02DB0220009010E00D
:1050F0002A2C02DB032000900BE0142C02DB04209E
:10510000009006E00A2C02DB0520009001E006205A
:1051100000900E48C07A9DF80010884201D100200E
:10512000DBE70A4A12689178084A526810786B46A1
:105130000122FCF743F810B14FF0FF30CDE79DF8A6
:1051400000100248C1720020C7E700005400002090
:1051500038B504462448807A10B94FF0FF3038BD86
:10516000214890F8240010B14FF0FF30F7E71E48B7
:10517000007D50B134B1282C04DCE0B2FFF77AFB9B
:105180000020ECE70020FFF775FB042C01DA042473
:1051900004E0B4F57A7F01DD4FF47A744FF47A704D
:1051A00090FBF4F0401EC0B200900F4A1268517894
:1051B0000D4A526810786B460122FBF7FFFF10B1D1
:1051C0004FF0FF30CBE79DF80000401C4FF47A71A0
:1051D00091FBF0F081B20448C1810146C9894810B1
:1051E000FFF774FF0020BAE75400002038B50446EA
:1051F00004F0700010B10120009005E014B100200F
:10520000009001E0402000902B4A1268917C2A4ACD
:10521000526810786B460122FBF7D0FF20B10021C5
:1052200025488172481E38BD9DF8000020F04001DD
:10523000214801730020009004F0400020B99DF83F
:10524000000040F00400009004F0200020B99DF818
:10525000000040F00200009004F0100020B99DF81A
:10526000000040F00100009004F0080020B99DF813
:10527000000040F0380000900F4A1268D17C0E4ABE
:10528000526810786B460122FBF798FF20B100218D
:1052900009488172481EC6E724B1082C02D00020BC
:1052A000FFF7DEFE04488472002101753220FDF70D
:1052B00029F90020B7E7000054000020F8B50446A3
:1052C0000D46164616B94FF0FF30F8BD1A48807AE1
:1052D00010B94FF0FF30F8E720128DF80000E0B26F
:1052E0008DF801009DF80100284413494968498957
:1052F000884202DD4FF0FF30E7E70F4A1268117E67
:105300000D4A526810786B460222FBF757FF10B126
:105310004FF0FF30D9E7EAB2074B1B68597D064BC7
:105320005B6818783346FBF749FF10B14FF0FF3048
:10533000CBE70020C9E700005400002070B588B01A
:1053400002A905A8FFF78AFC0446032C3ED101A858
:10535000FFF7DCF8059801F057F80646019901F0CF
:10536000B3F8054601F014F80590069801F04CF8E2
:105370000646019901F0A8F8054601F009F80690E3
:10538000079801F041F80646019901F09DF805469D
:1053900000F0FEFF079005A8FDF738FC6846FFF710
:1053A00061F8BDF80010029848430290BDF8001063
:1053B000039848430390BDF80010049848430490B4
:1053C00002A8FDF753FB002008B070BD0120FBE7E9
:1053D00038B50446214890F82400C0B114B1022029
:1053E000009001E0002000901C4A1268D17B1B4A0B
:1053F000526810786B460122FBF7E0FE10B14FF0C7
:10540000FF3038BD9DF800101448417423E0134864
:10541000807A10B94FF0FF30F3E724B10F48407C99
:1054200008B10020EDE714B10120009001E0002058
:1054300000900A4A1268D17B084A526810786B467D
:105440000122FBF7BBFE10B14FF0FF30D9E79DF80A
:105450000010024841740020D3E7000054000020EF
:105460002DE9F04106460F4600F032FC04000D46DF
:1054700018BF0120284320F00040C0F17F6000F1F8
:10548000E040C00F0ED0301C18BF0120384320F080
:105490000040C0F17F6000F1E040C00F04BF012078
:1054A000FBF776F820462946BDE8F08110B586B0B6
:1054B0000446012144F20400FBF70AFF4FF4007098
:1054C000ADF8140003208DF8160018208DF8170091
:1054D00005A91C48FBF7A5FA4FF48060ADF814004D
:1054E00004208DF8170005A91648FBF79AFA252025
:1054F0008DF8000003208DF801008DF802000120D6
:105500008DF803006846FBF78DFE01940020ADF88E
:105510000800ADF80A00ADF80C00ADF810000C2042
:10552000ADF80E0001A90848FCF7F2FA012240F29A
:1055300025510548FCF7C6FA01210348FCF78CFA0F
:1055400006B010BD000801400038014010B52048E9
:10555000007800283BD01E480078082835D2DFE8C4
:1055600000F0340510341C2834042FE000201849C2
:10557000087040F22621FEF757FD1420FCF7C2FF09
:1055800024E00020124908704FF416711148FEF70C
:105590004BFD1420FCF7B6FF18E000200C49087002
:1055A000002140F22620FEF73FFD1420FCF7AAFF61
:1055B0000CE000200649087006494FF41670FEF70B
:1055C00033FD1420FCF79EFF00E000BF00BF10BDBC
:1055D0000300002048FEFFFF10B51948007870B3A3
:1055E0001748007802280ED0052819D0072824D1A2
:1055F00000201349087013490846FEF715FD1420D2
:10560000FCF780FF1AE000200D4908704FF4167176
:105610000C481438FEF708FD1420FCF773FF0DE06A
:10562000002007490870074914394FF41670FEF737
:10563000FBFC1420FCF766FF00E000BF00BF10BDBC
:10564000030000205CFEFFFF21F00042A2F1605247
:10565000B2F5801F01F0004328BFD2F17F6C0BD957
:105660005FEA001C43EAC20242EB507018BF704769
:1056700028BF20F001007047B2F5801FBCBF18465C
:1056800070474FEA410C1CF5001F02D2084600F09B
:10569000E2BF70B500F0BCFA00000089FFF7F6BF6A
:1056A0004FF00040A0F580007047000010B591EA6F
:1056B000030F48BF83F0004300F1F883841A71EBB5
:1056C000030C05D2121943EB0C03001B61EB0C0118
:1056D000DFF824E14FEA1154A4EB135C1EEA430FF8
:1056E00018BF9EEA445F73D023EA0E03DCF1200E5C
:1056F00021EA045143F4801332D322FA0CFE10EB5A
:105700000E0023FA0CFE41EB0E01CCF1200E03FA41
:105710000EFE10EB0E0051F10001B1F5801FCCF12F
:10572000200E32D201EB045112FA0EF2BDE8104005
:1057300058BF7047401C38BF5FEA420218BF70472D
:10574000002814BF20F0010041F100014FEA41039D
:1057500013F5001F38BF7047A1F1C04100F0A6BA91
:10576000012A43EB0302ACF1200CDCF11F0E32BF27
:105770004FF0000E23FA0CF310EB030041EB045141
:10578000B4EB115FD0D0A1EB045101F580114908B1
:105790005FEA300001EB04510ED350F1000038BF36
:1057A00012FA0EFE08D1BDE81040C9E7401C38BF10
:1057B0005FEA4202CAD1C3E7BDE810404FEA4103A5
:1057C00013F5001F38BF7047A1F1C04100F06EBA59
:1057D0009EEA445F08D011EA5E0FBDE8104004BFA6
:1057E00001F0004100207047BDE8104070B500F0A6
:1057F0000FFA00BF64FBBE3E0000E0FF02494FF01D
:10580000000000F0D4BF00BF0000F87F2DE9C041C8
:1058100030B4DFF8A0C23CEA111418BF3CEA1314FC
:1058200000F0EC8081EA03051CEA111444EAD57407
:1058300018BF1CEA131500F0C780A4EB05044FF055
:10584000004545EAC12145EAC32341EA505143EAF4
:10585000525304F17F74994204F500344FEAC0209A
:105860004FEAC22208BF904200F09C804FEA1365C5
:105870000FF24016765D4FEA134506FB05F7C7F1B8
:10588000807706FB07F74FEAD737A7FB0368764216
:10589000C8F58038A7FB06CE38BFA8F1010807FB82
:1058A00008E64FF0000EA6FB028CE6FB03CEDCF10F
:1058B000000CCEF1004E38BFAEF1010EA6FB0C5825
:1058C0004FF000074FF00005E6FB0E87A1FB08C66E
:1058D000A0FB07CE16EB0E0645F10005E1FB0765C0
:1058E00015F1E04E7EBFA4F580345FEA46066D41B7
:1058F00016F1800745F100054FEA17274FEA0666C3
:1059000047EA0567A6F1DE46B6F1805F4FEA152546
:105910001FD9384624F0010C05EBC471BCF1FE6FB1
:1059200001EB0C1102D8F0BCBDE8008124425CBF41
:1059300001F5801E9EEAC47F02D4F0BCBDE8008160
:10594000244238D4F0BCA1F1C041BDE8004100F0D0
:10595000ADB94FEAD22242EA43524FEAD323A7FB22
:1059600002864FEAD02040EA415007FB03661EEA58
:105970000E0F4FEAD12105FB026658BFA6EB005679
:10598000B6EB00564FEA520E4EEAC37E18EB0E0EEF
:1059900056EB530EBDD518EB02085E417F1C55F146
:1059A0000005B6E74FF480154FF000074FF00006F2
:1059B0004FF00008ADE7F0BC4FF0000001F1C0412E
:1059C00001F00041BDE8008111EA0C1F0CEA13153B
:1059D00000D00CE013EA0C1F00F025804FF000000F
:1059E000F0BC81EA030101F00041BDE80081F0BC98
:1059F000BDE8004181EA030100F058B9F0BCBDE800
:105A0000004170B500F004F9097EFC3E00F007B8D3
:105A100081EA03014FF0000001F00041704781EA84
:105A2000030100F043B9F0BCBDE800414FF00000B5
:105A300021497047FFFDFBF9F7F5F4F2F0EEEDEBCD
:105A4000E9E8E6E4E3E1E0DEDDDBDAD8D7D5D4D37C
:105A5000D1D0CFCDCCCBCAC8C7C6C5C4C2C1C0BFC8
:105A6000BEBDBCBBBAB9B8B7B6B5B4B3B2B1B0AFCE
:105A7000AEADACABAAA9A8A8A7A6A5A4A3A3A2A1B2
:105A8000A09F9F9E9D9C9C9B9A999998979796956D
:105A900095949393929191908F8F8E8E8D8C8C8B09
:105AA0008B8A898988888787868585848483838291
:105AB000828181800000FF070000F87FDFF848C185
:105AC00070B51CEA111E1EBF1CEA13159EEA0C0FCE
:105AD00095EA0C0F00F06F8081EA030423EA4C136F
