:020000040800F2
:10000000D8060020CD01000879040008710400081A
:100010007504000875020008A5090008000000002A
:1000200000000000000000000000000019060008A9
:100030007902000800000000010500082D070008F3
:10004000E7010008E7010008E7010008E7010008F0
:10005000E7010008E7010008E7010008E7010008E0
:10006000E7010008E7010008E7010008E7010008D0
:10007000E7010008E7010008E7010008E7010008C0
:10008000E7010008E7010008E7010008E7010008B0
:10009000E7010008E7010008E7010008E7010008A0
:1000A000E7010008E7010008E7010008E701000890
:1000B000E7010008E7010008E7010008E701000880
:1000C000E7010008E7010008E7010008E701000870
:1000D000E701000891070008E7010008E7010008B0
:1000E000E7010008E7010008E7010008E701000850
:1000F000E7010008E7010008E7010008E701000840
:10010000E7010008E7010008E7010008E70100082F
:10011000E7010008E7010008E7010008E70100081F
:10012000E7010008E7010008E7010008E70100080F
:1001300000F002F800F03AF80AA090E8000C8244BF
:100140008344AAF10107DA4501D100F02FF8AFF29C
:10015000090EBAE80F0013F0010F18BFFB1A43F0A5
:10016000010318474C0B00006C0B0000103A24BF31
:1001700078C878C1FAD8520724BF30C830C144BF0C
:1001800004680C607047000000230024002500264E
:10019000103A28BF78C1FBD8520728BF30C148BFEA
:1001A0000B6070471FB51FBD10B510BD00F033F8D0
:1001B0001146FFF7F7FF00F043FC00F051F803B4DD
:1001C000FFF7F2FF03BC00F0EFFB00000948804797
:1001D00009480047FEE7FEE7FEE7FEE7FEE7FEE729
:1001E000FEE7FEE7FEE7FEE704480549054A064B41
:1001F000704700003107000831010008D8000020D6
:10020000D8060020D8020020D8020020704770478E
:10021000704770477047754600F028F8AE460500F5
:100220006946534620F00700854618B020B5FFF711
:10023000DBFFBDE820404FF000064FF000074FF015
:1002400000084FF0000B21F00701AC46ACE8C009F4
:10025000ACE8C009ACE8C009ACE8C0098D467047FD
:100260000446AFF300802046FFF7A9FF004870471F
:100270007400002000BFFEE770472DE9F041024600
:1002800000250026002000230024002791F803C049
:100290000CF00F0591F803C00CF0100CBCF1000F2E
:1002A00003D091F802C04CEA050591F800C0BCF1FA
:1002B000000F31D0146800202BE04FF0010C0CFA35
:1002C00000F3B1F800C00CEA03069E4220D183007F
:1002D0004FF00F0C0CFA03F7BC4305FA03FC4CEA91
:1002E000040491F803C0BCF1280F06D14FF0010CB3
:1002F0000CFA00FCC2F814C00AE091F803C0BCF18B
:10030000480F05D14FF0010C0CFA00FCC2F810C0E8
:10031000401C0828D1D31460B1F800C0BCF1FF0F15
:1003200034DD546800202EE000F1080C4FF0010885
:1003300008FA0CF3B1F800C00CEA03069E4221D182
:1003400083004FF00F0C0CFA03F7BC4305FA03FCD3
:100350004CEA040491F803C0BCF1280F05D100F168
:10036000080C08FA0CF8C2F8148091F803C0BCF12C
:10037000480F07D100F1080C4FF0010808FA0CF8FB
:10038000C2F81080401C0828CED35460BDE8F0812C
:1003900010B50CA000F0F0FAC82000F02BFB0BA069
:1003A00000F0EAFAC82000F025FB0BA000F0E4FA08
:1003B000C82000F01FFB0BA000F0DEFAC82000F000
:1003C00019FB10BD41540D0A0000000041542B439D
:1003D00053510D0A0000000041542B4350494E3F39
:1003E0000D0A000041542B434F50533F0D0A0000AB
:1003F00070B505460C4613A000F0BEFAC82000F008
:10040000F9FA14A000F0B8FAC82000F0F3FA284670
:1004100000F0B2FAC82000F0EDFA204600F0ACFA85
:10042000C82000F0E7FA1A210D4800F0A0FAC82011
:1004300000F0E0FA0BA000F09FFAC82000F0DAFA12
:1004400070BD000041542B435343533D2247534D4D
:10045000220D0A0041542B434D47463D310D0A0001
:100460000044004041542B434D47443D310D0A00A8
:1004700000BFFEE700BFFEE77047000070B5002137
:1004800000230F22C47804B3154C246804F4E064FC
:10049000C4F5E064210AC1F10403CA40447804FAB7
:1004A00003F184781440214309010E4C0678A155CC
:1004B000047804F01F050124AC4005786D11AD00EF
:1004C00005F1E025C5F8004109E0047804F01F05B6
:1004D0000124AC40044D0678761145F8264070BDE5
:1004E0000CED00E000E400E080E100E0024901439F
:1004F000024A1160704700000000FA050CED00E0B0
:100500007047000029B1064AD2690243044BDA6100
:1005100004E0034AD2698243014BDA61704700006C
:100520000010024029B1064A92690243044B9A61C5
:1005300004E0034A92698243014B9A6170470000CC
:100540000010024030B500210022002400232D4D70
:100550006D6805F00C0121B1042905D0082923D1CB
:1005600005E0294D056022E0274D05601FE0254D7F
:100570006D6805F47012234D6D6805F48034022512
:1005800005EB92421CB9214D554305600BE01D4D12
:100590006D6805F400351DB11C4D5543056002E042
:1005A000194D5543056002E0174D056000BF00BFBF
:1005B000144D6D6805F0F0010909154D6B5C056877
:1005C000DD4045600F4D6D6805F4E061090A104D8E
:1005D0006B5C4568DD4085600A4D6D6805F46051CF
:1005E000C90A0B4D6B5C4568DD40C560054D6D6803
:1005F00005F44041890B074D6B5CC568B5FBF3F50D
:10060000056130BD0010024000127A0000093D0073
:100610005F0000206F000020704710B500F002F866
:1006200010BD00000CB50020019000903348006818
:1006300040F480303149086000BF3048006800F461
:10064000003000900198401C0190009818B9019862
:10065000B0F5A06FF1D12948006800F4003010B166
:100660000120009001E0002000900098012843D173
:100670002348006840F010002149086008460068DF
:1006800020F0030008600846006840F0020008609F
:100690001A4840681949486008464068486008465A
:1006A000406840F4806048600846406820F47C1050
:1006B00048600846406840F4E81048600846006812
:1006C00040F08070086000BF0C48006800F00070C7
:1006D0000028F9D00948406820F003000749486025
:1006E0000846406840F00200486000BF0348406888
:1006F00000F00C000828F9D10CBD000000100240E9
:1007000000200240042808D14FF0E021096941F09F
:1007100004014FF0E022116107E04FF0E021096988
:1007200021F004014FF0E022116170477047000092
:1007300010B51348006840F00100114908600846F0
:100740004068104908400E494860084600680E4954
:1007500008400B4908600846006820F480200860C3
:100760000846406820F4FE0048604FF41F0088608F
:10077000FFF753FF4FF000600449086010BD000010
:10078000001002400000FFF8FFFFF6FE08ED00E059
:1007900010B540F22551064800F029F838B1044858
:1007A00000F0E0F80349087001200349088010BDFB
:1007B000003801405E0000205C00002021B18289E9
:1007C00042F40052828104E082894DF6FF731A40A0
:1007D0008281704702460020B1F5007F00D100BF42
:1007E00013880B400BB1012000E00020704770B56A
:1007F0000246002400230025002040F66A16B1427C
:1008000000D100BFC1F3421501F01F03012606FA13
:1008100003F3012D02D19689334006E0022D02D167
:10082000168A334001E0968A33400C12012606FAFC
:1008300004F41688344013B10CB1012000E000200C
:1008400070BDF0B50346002400260025002040F6C8
:100850006A17B94200D100BF1846C1F3421401F033
:100860001F06012707FA06F5012C01D10C3004E020
:10087000022C01D1103000E014301AB107682F4368
:10088000076002E00768AF430760F0BD2DE9F0475D
:1008900086B005460E460024A24600BFA1460027AA
:1008A000B08900B100BF2F462C8A4CF6FF7004407F
:1008B000F08804432C82AC894EF6F3100440B088D3
:1008C00031890843718908430443AC81AC8A4FF6EF
:1008D000FF400440B0890443AC8201A8FFF732FE18
:1008E0001F48874202D1DDF810A001E0DDF80CA01E
:1008F000A88900F4004040B10AEBCA0000EB0A10DE
:1009000031684900B0FBF1F807E00AEBCA0000EBE0
:100910000A1031688900B0FBF1F86420B8FBF0F0F0
:1009200004012009642101FB1089A88900F400401A
:1009300040B1322000EBC900B0FBF1F000F007003D
:10094000044308E0322000EB09106421B0FBF1F011
:1009500000F00F0004432C8106B0BDE8F0870000D2
:100960000038014001468888C0F308007047C1F391
:10097000080282807047000010B504460BE0217821
:100980000748FFF7F4FF641C00BF40210448FFF74D
:1009900021FF0128F9D120780028F0D110BD0000F6
:1009A0000044004000BFFEE7014600BF7047000062
:1009B00010B56FF00400FFF7A5FE0A4800680A4969
:1009C000B0FBF1F0094908700846007800EB4001DF
:1009D000C1EBC0104FF6FF7101EAC0000449088066
:1009E00010BD00003C00002000127A0050000020E2
:1009F000520000200146114A12884A434FF0E0237A
:100A00005A6100229A611A46126942F001021A6183
:100A100000BF4FF0E022106900F001021AB100F4AB
:100A20008032002AF5D04FF0E022126922F0010254
:100A30004FF0E0231A6100229A61704752000020B3
:100A4000FFF7B6FF4FF4A060FFF750FD4FF41650CC
:100A500000F0DEF84FF4165000F08CF8FFF798FC29
:100A60007BE03E480088012877D13D48FFF77AFFB8
:100A70003C4908700020394908803A4800783028FD
:100A800006D031281CD0322832D0332860D147E03C
:100A900000203449087034493448FFF7A9FC4FF46A
:100AA0007A70FFF7A7FF30493048FFF7A1FC4FF4F9
:100AB0007A70FFF79FFF2C492C48FFF799FC4BE019
:100AC00000202849087028492848FFF791FC4FF476
:100AD0007A70FFF78FFF24492448FFF789FC4FF411
:100AE0007A70FFF787FF20492048FFF781FC33E049
:100AF00000201C4908701C491C48FFF779FC4FF482
:100B00007A70FFF777FF18491848FFF771FC4FF428
:100B10007A70FFF76FFF14491448FFF769FC1BE078
:100B200000201049087012491048FFF761FC4FF48B
:100B30007A70FFF75FFF0E490C48FFF759FC4FF43E
:100B40007A70FFF757FF0A490848FFF751FC03E0A6
:100B500000200449087000BF00BF82E75C0000204D
:100B60000038014000000020190000200100002092
:100B70002E00002010B586B0044601214804FFF77E
:100B8000C1FC0420ADF8140003208DF816001820D5
:100B90008DF8170005A91C48FFF76FFB0820ADF87A
:100BA000140004208DF8170005A91748FFF765FB0E
:100BB00026208DF8000003208DF801008DF802003A
:100BC00001208DF803006846FFF758FC01940020CF
:100BD000ADF80800ADF80A00ADF80C00ADF8100053
:100BE0000C20ADF80E0001A90848FFF74FFE0022C7
:100BF00040F225510548FFF724FE01210348FFF785
:100C0000DDFD06B010BD00000008014000440040BA
:100C100010B586B00446012144F20400FFF782FCBF
:100C20004FF40070ADF8140003208DF81600182062
:100C30008DF8170005A91C48FFF71FFB4FF48060D3
:100C4000ADF8140004208DF8170005A91648FFF729
:100C500014FB25208DF8000003208DF801008DF88D
:100C6000020001208DF803006846FFF707FC01949D
:100C70000020ADF80800ADF80A00ADF80C00ADF8A2
:100C800010000C20ADF80E0001A90848FFF7FEFD8A
:100C9000012240F225510548FFF7D3FD0121034809
:100CA000FFF78CFD06B010BD000801400038014080
:100CB000D00C000800000020740000006C01000847
:100CC000440D00087400002064060000880100083C
:100CD0000041542B434D47533D223135303338309A
:100CE0003138353534220D0A0021212166697265BB
:100CF00020666972652066697265212121002121C3
:100D000072657475726E21212100000000A24A04F0
:100D100000000000000000000102030406070809AB
:100D200000000000000000000000000000000000C3
:100D3000000000010203040102030406070809027F
:040D4000040608009D
:0400000508000131BD
:00000001FF
